{"abi":[{"type":"constructor","inputs":[],"stateMutability":"nonpayable"},{"type":"function","name":"DEFAULT_ADMIN_ROLE","inputs":[],"outputs":[{"name":"","type":"bytes32","internalType":"bytes32"}],"stateMutability":"view"},{"type":"function","name":"UPGRADE_INTERFACE_VERSION","inputs":[],"outputs":[{"name":"","type":"string","internalType":"string"}],"stateMutability":"view"},{"type":"function","name":"WhitelistedLiquidators","inputs":[{"name":"user","type":"address","internalType":"address"}],"outputs":[{"name":"isWhitelisted","type":"bool","internalType":"bool"}],"stateMutability":"view"},{"type":"function","name":"_totalReservedMargin","inputs":[{"name":"user","type":"address","internalType":"address"}],"outputs":[{"name":"amount","type":"uint256","internalType":"uint256"}],"stateMutability":"view"},{"type":"function","name":"addMargin","inputs":[{"name":"marketId","type":"bytes32","internalType":"bytes32"},{"name":"amount","type":"uint256","internalType":"uint256"}],"outputs":[],"stateMutability":"nonpayable"},{"type":"function","name":"adminClearStuckPosition","inputs":[{"name":"user","type":"address","internalType":"address"},{"name":"marketId","type":"bytes32","internalType":"bytes32"}],"outputs":[],"stateMutability":"nonpayable"},{"type":"function","name":"closePosition","inputs":[{"name":"marketId","type":"bytes32","internalType":"bytes32"},{"name":"size","type":"uint128","internalType":"uint128"},{"name":"priceLimitX18","type":"uint256","internalType":"uint256"}],"outputs":[],"stateMutability":"nonpayable"},{"type":"function","name":"deposit","inputs":[{"name":"token","type":"address","internalType":"address"},{"name":"amount","type":"uint256","internalType":"uint256"}],"outputs":[],"stateMutability":"nonpayable"},{"type":"function","name":"getAccountValue","inputs":[{"name":"account","type":"address","internalType":"address"}],"outputs":[{"name":"","type":"int256","internalType":"int256"}],"stateMutability":"view"},{"type":"function","name":"getMaintenanceMargin","inputs":[{"name":"account","type":"address","internalType":"address"},{"name":"marketId","type":"bytes32","internalType":"bytes32"}],"outputs":[{"name":"","type":"uint256","internalType":"uint256"}],"stateMutability":"view"},{"type":"function","name":"getMarginRatio","inputs":[{"name":"account","type":"address","internalType":"address"},{"name":"marketId","type":"bytes32","internalType":"bytes32"}],"outputs":[{"name":"","type":"uint256","internalType":"uint256"}],"stateMutability":"view"},{"type":"function","name":"getNotional","inputs":[{"name":"account","type":"address","internalType":"address"},{"name":"marketId","type":"bytes32","internalType":"bytes32"}],"outputs":[{"name":"","type":"uint256","internalType":"uint256"}],"stateMutability":"view"},{"type":"function","name":"getPosition","inputs":[{"name":"account","type":"address","internalType":"address"},{"name":"marketId","type":"bytes32","internalType":"bytes32"}],"outputs":[{"name":"","type":"tuple","internalType":"struct IClearingHouse.PositionView","components":[{"name":"size","type":"int256","internalType":"int256"},{"name":"margin","type":"uint256","internalType":"uint256"},{"name":"entryPriceX18","type":"uint256","internalType":"uint256"},{"name":"lastFundingIndex","type":"int256","internalType":"int256"},{"name":"realizedPnL","type":"int256","internalType":"int256"}]}],"stateMutability":"view"},{"type":"function","name":"getRoleAdmin","inputs":[{"name":"role","type":"bytes32","internalType":"bytes32"}],"outputs":[{"name":"","type":"bytes32","internalType":"bytes32"}],"stateMutability":"view"},{"type":"function","name":"grantRole","inputs":[{"name":"role","type":"bytes32","internalType":"bytes32"},{"name":"account","type":"address","internalType":"address"}],"outputs":[],"stateMutability":"nonpayable"},{"type":"function","name":"hasRole","inputs":[{"name":"role","type":"bytes32","internalType":"bytes32"},{"name":"account","type":"address","internalType":"address"}],"outputs":[{"name":"","type":"bool","internalType":"bool"}],"stateMutability":"view"},{"type":"function","name":"initialize","inputs":[{"name":"_vault","type":"address","internalType":"address"},{"name":"_marketRegistry","type":"address","internalType":"address"},{"name":"admin","type":"address","internalType":"address"}],"outputs":[],"stateMutability":"nonpayable"},{"type":"function","name":"isLiquidatable","inputs":[{"name":"account","type":"address","internalType":"address"},{"name":"marketId","type":"bytes32","internalType":"bytes32"}],"outputs":[{"name":"","type":"bool","internalType":"bool"}],"stateMutability":"view"},{"type":"function","name":"liquidate","inputs":[{"name":"account","type":"address","internalType":"address"},{"name":"marketId","type":"bytes32","internalType":"bytes32"},{"name":"size","type":"uint128","internalType":"uint128"}],"outputs":[],"stateMutability":"nonpayable"},{"type":"function","name":"marketRegistry","inputs":[],"outputs":[{"name":"","type":"address","internalType":"address"}],"stateMutability":"view"},{"type":"function","name":"marketRiskParams","inputs":[{"name":"marketId","type":"bytes32","internalType":"bytes32"}],"outputs":[{"name":"imrBps","type":"uint256","internalType":"uint256"},{"name":"mmrBps","type":"uint256","internalType":"uint256"},{"name":"liquidationPenaltyBps","type":"uint256","internalType":"uint256"},{"name":"penaltyCap","type":"uint256","internalType":"uint256"}],"stateMutability":"view"},{"type":"function","name":"openPosition","inputs":[{"name":"marketId","type":"bytes32","internalType":"bytes32"},{"name":"isLong","type":"bool","internalType":"bool"},{"name":"size","type":"uint128","internalType":"uint128"},{"name":"priceLimitX18","type":"uint256","internalType":"uint256"}],"outputs":[],"stateMutability":"nonpayable"},{"type":"function","name":"pauseMarket","inputs":[{"name":"marketId","type":"bytes32","internalType":"bytes32"},{"name":"paused","type":"bool","internalType":"bool"}],"outputs":[],"stateMutability":"nonpayable"},{"type":"function","name":"positions","inputs":[{"name":"user","type":"address","internalType":"address"},{"name":"marketId","type":"bytes32","internalType":"bytes32"}],"outputs":[{"name":"size","type":"int256","internalType":"int256"},{"name":"margin","type":"uint256","internalType":"uint256"},{"name":"entryPriceX18","type":"uint256","internalType":"uint256"},{"name":"lastFundingIndex","type":"int256","internalType":"int256"},{"name":"realizedPnL","type":"int256","internalType":"int256"}],"stateMutability":"view"},{"type":"function","name":"proxiableUUID","inputs":[],"outputs":[{"name":"","type":"bytes32","internalType":"bytes32"}],"stateMutability":"view"},{"type":"function","name":"removeMargin","inputs":[{"name":"marketId","type":"bytes32","internalType":"bytes32"},{"name":"amount","type":"uint256","internalType":"uint256"}],"outputs":[],"stateMutability":"nonpayable"},{"type":"function","name":"removeWhitelistedLiquidator","inputs":[{"name":"liquidator","type":"address","internalType":"address"}],"outputs":[],"stateMutability":"nonpayable"},{"type":"function","name":"renounceRole","inputs":[{"name":"role","type":"bytes32","internalType":"bytes32"},{"name":"callerConfirmation","type":"address","internalType":"address"}],"outputs":[],"stateMutability":"nonpayable"},{"type":"function","name":"revokeRole","inputs":[{"name":"role","type":"bytes32","internalType":"bytes32"},{"name":"account","type":"address","internalType":"address"}],"outputs":[],"stateMutability":"nonpayable"},{"type":"function","name":"setRiskParams","inputs":[{"name":"marketId","type":"bytes32","internalType":"bytes32"},{"name":"imrBps","type":"uint256","internalType":"uint256"},{"name":"mmrBps","type":"uint256","internalType":"uint256"},{"name":"liquidationPenaltyBps","type":"uint256","internalType":"uint256"},{"name":"penaltyCap","type":"uint256","internalType":"uint256"}],"outputs":[],"stateMutability":"nonpayable"},{"type":"function","name":"setVault","inputs":[{"name":"_newVault","type":"address","internalType":"address"}],"outputs":[],"stateMutability":"nonpayable"},{"type":"function","name":"setWhitelistedLiquidator","inputs":[{"name":"liquidator","type":"address","internalType":"address"},{"name":"isWhitelisted","type":"bool","internalType":"bool"}],"outputs":[],"stateMutability":"nonpayable"},{"type":"function","name":"settleFunding","inputs":[{"name":"marketId","type":"bytes32","internalType":"bytes32"},{"name":"account","type":"address","internalType":"address"}],"outputs":[],"stateMutability":"nonpayable"},{"type":"function","name":"supportsInterface","inputs":[{"name":"interfaceId","type":"bytes4","internalType":"bytes4"}],"outputs":[{"name":"","type":"bool","internalType":"bool"}],"stateMutability":"view"},{"type":"function","name":"upgradeToAndCall","inputs":[{"name":"newImplementation","type":"address","internalType":"address"},{"name":"data","type":"bytes","internalType":"bytes"}],"outputs":[],"stateMutability":"payable"},{"type":"function","name":"vault","inputs":[],"outputs":[{"name":"","type":"address","internalType":"address"}],"stateMutability":"view"},{"type":"function","name":"withdraw","inputs":[{"name":"token","type":"address","internalType":"address"},{"name":"amount","type":"uint256","internalType":"uint256"}],"outputs":[],"stateMutability":"nonpayable"},{"type":"event","name":"FundingSettled","inputs":[{"name":"marketId","type":"bytes32","indexed":true,"internalType":"bytes32"},{"name":"account","type":"address","indexed":true,"internalType":"address"},{"name":"fundingPayment","type":"int256","indexed":false,"internalType":"int256"}],"anonymous":false},{"type":"event","name":"Initialized","inputs":[{"name":"version","type":"uint64","indexed":false,"internalType":"uint64"}],"anonymous":false},{"type":"event","name":"LiquidationExecuted","inputs":[{"name":"marketId","type":"bytes32","indexed":true,"internalType":"bytes32"},{"name":"liquidator","type":"address","indexed":true,"internalType":"address"},{"name":"account","type":"address","indexed":true,"internalType":"address"},{"name":"size","type":"uint128","indexed":false,"internalType":"uint128"},{"name":"notional","type":"uint256","indexed":false,"internalType":"uint256"},{"name":"penalty","type":"uint256","indexed":false,"internalType":"uint256"},{"name":"liquidatorReward","type":"uint256","indexed":false,"internalType":"uint256"},{"name":"protocolFee","type":"uint256","indexed":false,"internalType":"uint256"},{"name":"insurancePayout","type":"uint256","indexed":false,"internalType":"uint256"}],"anonymous":false},{"type":"event","name":"LiquidatorWhitelistUpdated","inputs":[{"name":"liquidator","type":"address","indexed":true,"internalType":"address"},{"name":"isWhitelisted","type":"bool","indexed":false,"internalType":"bool"}],"anonymous":false},{"type":"event","name":"MarginAdded","inputs":[{"name":"user","type":"address","indexed":true,"internalType":"address"},{"name":"marketId","type":"bytes32","indexed":true,"internalType":"bytes32"},{"name":"amount","type":"uint256","indexed":false,"internalType":"uint256"}],"anonymous":false},{"type":"event","name":"MarginRemoved","inputs":[{"name":"user","type":"address","indexed":true,"internalType":"address"},{"name":"marketId","type":"bytes32","indexed":true,"internalType":"bytes32"},{"name":"amount","type":"uint256","indexed":false,"internalType":"uint256"}],"anonymous":false},{"type":"event","name":"MarketPaused","inputs":[{"name":"marketId","type":"bytes32","indexed":true,"internalType":"bytes32"},{"name":"isPaused","type":"bool","indexed":false,"internalType":"bool"}],"anonymous":false},{"type":"event","name":"PositionCleared","inputs":[{"name":"user","type":"address","indexed":true,"internalType":"address"},{"name":"marketId","type":"bytes32","indexed":true,"internalType":"bytes32"},{"name":"clearedMargin","type":"uint256","indexed":false,"internalType":"uint256"},{"name":"oldReservedMargin","type":"uint256","indexed":false,"internalType":"uint256"},{"name":"newReservedMargin","type":"uint256","indexed":false,"internalType":"uint256"}],"anonymous":false},{"type":"event","name":"RiskParamsSet","inputs":[{"name":"marketId","type":"bytes32","indexed":true,"internalType":"bytes32"},{"name":"imrBps","type":"uint256","indexed":false,"internalType":"uint256"},{"name":"mmrBps","type":"uint256","indexed":false,"internalType":"uint256"},{"name":"liquidationPenaltyBps","type":"uint256","indexed":false,"internalType":"uint256"},{"name":"penaltyCap","type":"uint256","indexed":false,"internalType":"uint256"}],"anonymous":false},{"type":"event","name":"RoleAdminChanged","inputs":[{"name":"role","type":"bytes32","indexed":true,"internalType":"bytes32"},{"name":"previousAdminRole","type":"bytes32","indexed":true,"internalType":"bytes32"},{"name":"newAdminRole","type":"bytes32","indexed":true,"internalType":"bytes32"}],"anonymous":false},{"type":"event","name":"RoleGranted","inputs":[{"name":"role","type":"bytes32","indexed":true,"internalType":"bytes32"},{"name":"account","type":"address","indexed":true,"internalType":"address"},{"name":"sender","type":"address","indexed":true,"internalType":"address"}],"anonymous":false},{"type":"event","name":"RoleRevoked","inputs":[{"name":"role","type":"bytes32","indexed":true,"internalType":"bytes32"},{"name":"account","type":"address","indexed":true,"internalType":"address"},{"name":"sender","type":"address","indexed":true,"internalType":"address"}],"anonymous":false},{"type":"event","name":"Upgraded","inputs":[{"name":"implementation","type":"address","indexed":true,"internalType":"address"}],"anonymous":false},{"type":"event","name":"VaultUpdated","inputs":[{"name":"oldVault","type":"address","indexed":true,"internalType":"address"},{"name":"newVault","type":"address","indexed":true,"internalType":"address"}],"anonymous":false},{"type":"event","name":"collateralDeposited","inputs":[{"name":"user","type":"address","indexed":true,"internalType":"address"},{"name":"token","type":"address","indexed":true,"internalType":"address"},{"name":"amount","type":"uint256","indexed":false,"internalType":"uint256"}],"anonymous":false},{"type":"event","name":"collateralWithdrawn","inputs":[{"name":"user","type":"address","indexed":true,"internalType":"address"},{"name":"token","type":"address","indexed":true,"internalType":"address"},{"name":"amount","type":"uint256","indexed":false,"internalType":"uint256"}],"anonymous":false},{"type":"error","name":"AccessControlBadConfirmation","inputs":[]},{"type":"error","name":"AccessControlUnauthorizedAccount","inputs":[{"name":"account","type":"address","internalType":"address"},{"name":"neededRole","type":"bytes32","internalType":"bytes32"}]},{"type":"error","name":"AddressEmptyCode","inputs":[{"name":"target","type":"address","internalType":"address"}]},{"type":"error","name":"ERC1967InvalidImplementation","inputs":[{"name":"implementation","type":"address","internalType":"address"}]},{"type":"error","name":"ERC1967NonPayable","inputs":[]},{"type":"error","name":"FailedCall","inputs":[]},{"type":"error","name":"InvalidInitialization","inputs":[]},{"type":"error","name":"NotInitializing","inputs":[]},{"type":"error","name":"UUPSUnauthorizedCallContext","inputs":[]},{"type":"error","name":"UUPSUnsupportedProxiableUUID","inputs":[{"name":"slot","type":"bytes32","internalType":"bytes32"}]}],"bytecode":{"object":"0x60a080604052346100c257306080525f5160206141a05f395f51905f525460ff8160401c166100b3576002600160401b03196001600160401b03821601610060575b6040516140d990816100c7823960805181818161117601526118550152f35b6001600160401b0319166001600160401b039081175f5160206141a05f395f51905f525581527fc7f505b2f371ae2175ee4913f4499e1f2633a7b5936321eed1cdaeb6115181d290602090a15f80610041565b63f92ee8a960e01b5f5260045ffd5b5f80fdfe6080806040526004361015610012575f80fd5b5f905f3560e01c90816301ffc9a7146122a5575080630fa8f516146121e257806313fa5292146120f557806321e49bfd1461205b578063248a9ca31461203057806324e51cfc14611eb65780632e16fd6b14611e845780632f2ff15d14611e4657806334176a6d14611dd557806336568abe14611d905780633811ff3114611d57578063468e000014611b5e57806347e7ef2414611a3a5780634f1ef286146117d9578063512159db146111ca57806352d1902d146111635780635ae80951146110ba57806362e6b34c146110955780636817031b1461100057806388f59ddc14610fd857806391d1485414610f8f57806397709b5d14610e5c5780639e0a737814610d38578063a217fddf14610d1c578063ad3cb1cc14610cc0578063c0c53b8b14610a82578063c7d1933714610a43578063d22460bd146109f6578063d547741f146109af578063d5528f5d146107c6578063ea181b621461079e578063ecb96fe614610775578063f2d7e950146106ed578063f3fef3a3146104a2578063fbfa77cf14610479578063fd715d17146104495763fe2b5238146101b5575f80fd5b34610446576060366003190112610446576024356004356001600160801b03821680830361044457604435926101eb338461266b565b60025460405163c3c95c7b60e01b8152600481018590529061012090829060249082906001600160a01b03165afa90811561043957869161040a575b50805161023e906001600160a01b03161515612597565b610249831515612aef565b33865260046020526040862084875260205260408620549283156103d7578684139384156103c857905b1161038f57516001600160a01b0316911561031b5760405162e3079f60e81b81526001600160801b03909116600482015260248101939093526060908390818681604481015b03925af18015610310576102da92849085926102dd575b5090915b33612f75565b80f35b9050610301915060603d606011610309575b6102f98183612380565b8101906125eb565b9190916102d0565b503d6102ef565b6040513d85823e3d90fd5b604051633396b97160e01b81526001600160801b03909116600482015260248101939093526060908390818681604481015b03925af18015610310576102da928490859261036c575b5090916102d4565b9050610387915060603d606011610309576102f98183612380565b919091610364565b60405162461bcd60e51b81526020600482015260116024820152702932b23ab1b2901f103837b9b4ba34b7b760791b6044820152606490fd5b6103d1906125db565b90610273565b60405162461bcd60e51b815260206004820152600b60248201526a2737903837b9b4ba34b7b760a91b6044820152606490fd5b61042c91506101203d8111610432575b6104248183612380565b8101906124ee565b5f610227565b503d61041a565b6040513d88823e3d90fd5b835b80fd5b50346104465760403660031901126104465760206104716104686122f8565b60243590612b2e565b604051908152f35b50346104465780600319360112610446576001546040516001600160a01b039091168152602090f35b5034610446576040366003190112610446576104bc6122f8565b60243590811561069657600154604051637456d92360e01b815233600482015284916001600160a01b031690602081602481855afa908115610310578391610661575b5033835260056020908152604080852054905163448116eb60e11b81526001600160a01b03871660048201526024810188905292909183604481875afa928315610656578593610615575b5061056092916105599161242f565b1015612aa3565b803b156106115760405163723301f360e01b815233600482018190526001600160a01b03851660248301526044820186905260648201529082908290608490829084905af18015610606576105ed575b50506040519182526001600160a01b03169033907f3a76657468611c9b578c8d0dbec6bf96ec3ea2fadf7ddae00f274a7375abd7c190602090a380f35b816105f791612380565b61060257825f6105b0565b8280fd5b6040513d84823e3d90fd5b5080fd5b94509091506020843d60201161064e575b8161063360209383612380565b8101031261064a579251869390919061055961054a565b5f80fd5b3d9150610626565b6040513d87823e3d90fd5b9250506020823d60201161068e575b8161067d60209383612380565b8101031261064a578491515f6104ff565b3d9150610670565b60405162461bcd60e51b815260206004820152602960248201527f576974686472617720616d6f756e74206d7573742062652067726561746572206044820152687468616e207a65726f60b81b6064820152608490fd5b5034610446576020366003190112610446576107076122f8565b81805260208281526040808420335f908152925290205461072a9060ff166123ea565b6001600160a01b0316808252600360209081526040808420805460ff19169055518381527f071d00f142384ac91b11e0e017527489fbe27aed967757534719370cf2d3b8ee9190a280f35b50346104465780600319360112610446576002546040516001600160a01b039091168152602090f35b50346104465760403660031901126104465760206104716107bd6122f8565b60243590612c9e565b5034610446576080366003190112610446576004356107e3612324565b906107ec6123be565b91606435926107fb338461266b565b60025460405163170da40760e21b8152600481018590526001600160a01b0390911690602081602481855afa9081156109a4578791610966575b501561092d576101206024916040519283809263c3c95c7b60e01b82528860048301525afa90811561043957869161090e575b50805161087f906001600160a01b03161515612597565b6108936001600160801b0383161515612aef565b516001600160a01b031691156108d957604051633396b97160e01b81526001600160801b03909116600482015260248101939093526060908390818681604481016102b9565b60405162e3079f60e81b81526001600160801b039091166004820152602481019390935260609083908186816044810161034d565b61092791506101203d8111610432576104248183612380565b5f610868565b60405162461bcd60e51b81526020600482015260116024820152704d61726b6574206e6f742061637469766560781b6044820152606490fd5b90506020813d60201161099c575b8161098160209383612380565b8101031261099857610992906124e1565b5f610835565b8680fd5b3d9150610974565b6040513d89823e3d90fd5b5034610446576040366003190112610446576109f26004356109cf61230e565b906109ed6109e8825f525f602052600160405f20015490565b612d79565b612ee2565b5080f35b503461044657602036600319011261044657600435815260066020908152604091829020805460018201546002830154600390930154855192835293820152928301526060820152608090f35b50346104465760203660031901126104465760209060ff906040906001600160a01b03610a6e6122f8565b168152600384522054166040519015158152f35b503461044657606036600319011261044657610a9c6122f8565b610aa461230e565b6044356001600160a01b038116808203610cbc575f5160206140845f395f51905f52549360ff8560401c16159467ffffffffffffffff811680159081610cb4575b6001149081610caa575b159081610ca1575b50610c925767ffffffffffffffff1981166001175f5160206140845f395f51905f525585610c66575b506001600160a01b031692610b368415156128fc565b6001600160a01b0316908115610c215715610be457610b84926bffffffffffffffffffffffff60a01b60015416176001556bffffffffffffffffffffffff60a01b6002541617600255612db1565b50610b8c5780f35b68ff0000000000000000195f5160206140845f395f51905f5254165f5160206140845f395f51905f52557fc7f505b2f371ae2175ee4913f4499e1f2633a7b5936321eed1cdaeb6115181d2602060405160018152a180f35b60405162461bcd60e51b8152602060048201526015602482015274496e76616c69642061646d696e206164647265737360581b6044820152606490fd5b60405162461bcd60e51b815260206004820152601f60248201527f496e76616c6964206d61726b65742072656769737472792061646472657373006044820152606490fd5b68ffffffffffffffffff191668010000000000000001175f5160206140845f395f51905f52555f610b20565b63f92ee8a960e01b8752600487fd5b9050155f610af7565b303b159150610aef565b879150610ae5565b8480fd5b503461044657806003193601126104465760408051610cdf8282612380565b6005815260208101640352e302e360dc1b81528251938492602084525180928160208601528585015e828201840152601f01601f19168101030190f35b5034610446578060031936011261044657602090604051908152f35b503461044657610d47366123d4565b610d52811515612a57565b600154604051637456d92360e01b815233600482015290602090829060249082906001600160a01b03165afa908115610e51578491610e1d575b50610da7610daf91338652600560205260408620549061242f565b821115612aa3565b33835260046020526040832082845260205260016040842001610dd382825461265e565b9055338352600560205260408320610dec82825461265e565b90556040519081527f57ab4c4d40a32ad167254ad966d3295c6b75a4b4be6f5b76b6ac9df41c29839e60203392a380f35b90506020813d602011610e49575b81610e3860209383612380565b8101031261064a5751610da7610d8c565b3d9150610e2b565b6040513d86823e3d90fd5b503461044657610e6b366123d4565b610e76811515612a57565b338352600460205260408320828452602052600160408420018054828110610f4a57610ea28433612c9e565b610eac848361242f565b10610f055782610ebb9161242f565b9055338352600560205260408320610ed482825461242f565b90556040519081527f4c88d632ed7d743d1ae51add8d5c8da1cde21c1ef7af661e8c6813cb434ff11860203392a380f35b60405162461bcd60e51b815260206004820152601e60248201527f506f736974696f6e20776f756c64206265206c6971756964617461626c6500006044820152606490fd5b60405162461bcd60e51b815260206004820152601f60248201527f496e73756666696369656e74206d617267696e20696e20706f736974696f6e006044820152606490fd5b5034610446576040366003190112610446576040610fab61230e565b91600435815280602052209060018060a01b03165f52602052602060ff60405f2054166040519015158152f35b5034610446576040366003190112610446576020610471610ff76122f8565b60243590612940565b50346104465760203660031901126104465761101a6122f8565b81805260208281526040808420335f908152925290205461103d9060ff166123ea565b6001600160a01b03166110518115156128fc565b600180546001600160a01b0319811683179091556001600160a01b03167f483bdedaaf23706a9800ac1af0d852b34927780d79f9d6ba60a80c7cad75ea398380a380f35b5034610446576040366003190112610446576102da6110b261230e565b60043561266b565b5034610446576020366003190112610446576024906110d76122f8565b600154604051637456d92360e01b81526001600160a01b0392831660048201819052909490926020928692918391165afa92831561060657829361112e575b60206104718560408686815260058552205490612624565b92506020833d60201161115b575b8161114960209383612380565b8101031261064a579151916040611116565b3d915061113c565b50346104465780600319360112610446577f00000000000000000000000000000000000000000000000000000000000000006001600160a01b031630036111bb5760206040515f5160206140645f395f51905f528152f35b63703e46dd60e11b8152600490fd5b5034610446576060366003190112610446576111e46122f8565b6024356111ef6123be565b90338452600360205260ff6040852054161561178557604051632e16fd6b60e01b81526001600160a01b038416600482015260248101829052602081604481305afa90811561065657859161174b575b5015611713576001600160a01b038316808552600460209081526040808720848852909152852080549194868313926001600160801b0390841561170457955b169485151590816116f9575b50156116c55786602493816101006040516112a581612363565b8281528260208201528260408201528260608201528260808201528260a08201528260c08201528260e0820152015261012060018060a01b03600254166040519687809263c3c95c7b60e01b82528a60048301525afa9485156106065782956116a1575b50845160609190611324906001600160a01b03161515612597565b85516001600160a01b031690156116445760446040518094819362e3079f60e81b83528b60048401528160248401525af18015611616576113719189908a92611621575b505b8684612f75565b82516040516330204b1960e11b815290602090829060049082906001600160a01b03165afa80156116165788906115e2575b6113ae9150866134dc565b84885260066020526113c7600260408a20015482613594565b908589526006602052600360408a20015482116115cb575b8192899460018060a01b036080880151166115ae575b6001018054908185116115a85784915b82611557575b50505060e08601518a969061142c9086906001600160a01b031633856136da565b809150611498575b508580611487575b505050604051968752602087015260408601526060850152608084015260a08301527ff5cd1d991fe77f9f0965c16fe0105433237d658f7d34161853e4f229ff875d7c60c03393a480f35b61149092613ab9565b5f808561143c565b60a08201805192985090916001600160a01b03161561151957518b906001600160a01b0316803b156106115760405163117de2fd60e01b8152336004820152602481018490529082908290604490829084905af1801561060657611500575b5050955f611434565b8161150a91612380565b611515578a5f6114f7565b8a80fd5b60405162461bcd60e51b8152602060048201526016602482015275496e737572616e63652066756e64206d697373696e6760501b6044820152606490fd5b826115619161242f565b9055898b52600560205260408b205481116115a15761158c908a8c52600560205260408c205461242f565b898b52600560205260408b20555f808061140b565b508961158c565b81611405565b935093508160011c9360016115c3868561242f565b9490506113f5565b8589526006602052604089206003015491506113df565b506020813d60201161160e575b816115fc60209383612380565b8101031261064a576113ae90516113a3565b3d91506115ef565b6040513d8a823e3d90fd5b905061163c915060603d606011610309576102f98183612380565b919091611368565b604460405180948193633396b97160e01b83528b60048401528160248401525af18015611616576113719189908a9261167e575b5061136a565b9050611699915060603d606011610309576102f98183612380565b919091611678565b60609195506116be906101203d8111610432576104248183612380565b9490611309565b60405162461bcd60e51b815260206004820152600c60248201526b496e76616c69642073697a6560a01b6044820152606490fd5b90508511155f61128b565b61170d906125db565b9561127f565b60405162461bcd60e51b815260206004820152601060248201526f4e6f74206c6971756964617461626c6560801b6044820152606490fd5b90506020813d60201161177d575b8161176660209383612380565b81010312610cbc57611777906124e1565b5f61123f565b3d9150611759565b60405162461bcd60e51b815260206004820152602660248201527f43616c6c6572206973206e6f7420612077686974656c6973746564206c69717560448201526534b230ba37b960d11b6064820152608490fd5b506040366003190112610446576117ee6122f8565b6024359067ffffffffffffffff82116106025736602383011215610602578160040135908361181c836123a2565b9361182a6040519586612380565b8385526020850193366024828401011161060257806024602093018637850101526001600160a01b037f000000000000000000000000000000000000000000000000000000000000000016308114908115611a18575b50611a095783805260208481526040808620335f90815292529020546118a89060ff166123ea565b6040516352d1902d60e01b81526001600160a01b0382169390602081600481885afa8691816119d5575b506118eb57634c9c8ce360e01b86526004859052602486fd5b93845f5160206140645f395f51905f528796036119c35750823b156119b1575f5160206140645f395f51905f5280546001600160a01b031916821790558491907fbc7cd75a20ee27fd9adebab32041f755214dbc6bffa90cc0225b39da2e5c2d3b8380a2805115611996576109f29382915190845af43d1561198e573d91611972836123a2565b926119806040519485612380565b83523d85602085013e614005565b606091614005565b50505050346119a25780f35b63b398979f60e01b8152600490fd5b634c9c8ce360e01b8552600452602484fd5b632a87526960e21b8652600452602485fd5b9091506020813d602011611a01575b816119f160209383612380565b810103126109985751905f6118d2565b3d91506119e4565b63703e46dd60e11b8452600484fd5b5f5160206140645f395f51905f52546001600160a01b0316141590505f611880565b503461044657604036600319011261044657611a546122f8565b6024358015611b0857600154604051633d14d1b760e21b81526001600160a01b039384166004820181905260248201849052336044830152939091602091839160649183918991165af18015610e5157611ad9575b506040519081527fe4c032bd651f378a59936633a0f92b7497fd3577f65c95dc20a01acface334cc60203392a380f35b6020813d602011611b00575b81611af260209383612380565b8101031261064a5751611aa9565b3d9150611ae5565b60405162461bcd60e51b815260206004820152602860248201527f4465706f73697420616d6f756e74206d7573742062652067726561746572207460448201526768616e207a65726f60c01b6064820152608490fd5b50346104465760a0366003190112610446576004356024356044359060643560843590858052856020526040862060018060a01b0333165f52602052611baa60ff60405f2054166123ea565b60025460405163c3c95c7b60e01b8152600481018790529061012090829060249082906001600160a01b03165afa80156109a457611bfb918891611d38575b50516001600160a01b03161515612597565b838310611cfe578315611cc7576040516080810181811067ffffffffffffffff821117611cb357917fab89b7189222424f7474f0f10fedb16bd41c97e3baf664fb01b8b15a319ce08d95949391611cad936040528481526003602082018781526040830184815260608401918683528b8d52600660205260408d209451855551600185015551600284015551910155604051948594859094939260609260808301968352602083015260408201520152565b0390a280f35b634e487b7160e01b88526041600452602488fd5b60405162461bcd60e51b815260206004820152600f60248201526e04d4d52206d757374206265203e203608c1b6044820152606490fd5b60405162461bcd60e51b815260206004820152601260248201527124a6a91036bab9ba103132901f1e9026a6a960711b6044820152606490fd5b611d5191506101203d8111610432576104248183612380565b5f611be9565b5034610446576020366003190112610446576020906040906001600160a01b03611d7f6122f8565b168152600583522054604051908152f35b503461044657604036600319011261044657611daa61230e565b336001600160a01b03821603611dc6576109f290600435612ee2565b63334bd91960e11b8252600482fd5b50346104465760403660031901126104465760a0906040906001600160a01b03611dfd6122f8565b1681526004602052818120602435825260205220805490600181015490600281015460046003830154920154926040519485526020850152604084015260608301526080820152f35b5034610446576040366003190112610446576109f2600435611e6661230e565b90611e7f6109e8825f525f602052600160405f20015490565b612e60565b5034610446576040366003190112610446576020611eac611ea36122f8565b6024359061246b565b6040519015158152f35b503461044657604036600319011261044657611ed06122f8565b81805260208281526040808420335f90815292529020546024359190611ef89060ff166123ea565b6001600160a01b03168015611ffc57808352600460205260408320828452602052604083208054611fb75760608160017fd1e7c349fa11d198281a5b70c4660de1783b2400867eb929de4519ea890617db930186600482549387835260056020528260408120549486611f96575b5060028201558260038201550155848752600560205260408720549060405192835260208301526040820152a380f35b898252600560205260408220611fad88825461242f565b905555825f611f66565b60405162461bcd60e51b815260206004820152601760248201527f506f736974696f6e207374696c6c206861732073697a650000000000000000006044820152606490fd5b60405162461bcd60e51b815260206004820152600c60248201526b24b73b30b634b2103ab9b2b960a11b6044820152606490fd5b50346104465760203660031901126104465760206104716004355f525f602052600160405f20015490565b5034610446576040366003190112610446576120756122f8565b7f071d00f142384ac91b11e0e017527489fbe27aed967757534719370cf2d3b8ee60206120a0612324565b8480528482526040808620335f90815290845220549093906120c49060ff166123ea565b6001600160a01b0316808552600382526040808620805460ff191695151560ff81169690961790555193845292a280f35b503461064a57604036600319011261064a57600435612112612324565b335f9081527fad3228b676f7d3cd4284a5443f17f1962b36e491b30a40b2405849e597ba5fb5602052604090205461214c9060ff166123ea565b6002546001600160a01b031690813b1561064a575f80916044604051809481936309fd294960e11b83528860048401521515968760248401525af180156121d7576121c1575b5060207f05520bfd4bb1667474a37714b39c417a849997967943d706d4139a6308b7d93391604051908152a280f35b6121ce9193505f90612380565b5f916020612192565b6040513d5f823e3d90fd5b3461064a57604036600319011261064a576121fb6122f8565b5f608060405161220a81612333565b828152826020820152826040820152826060820152015260018060a01b03165f52600460205260405f206024355f5260205260a060405f2060405161224e81612333565b81549182825260018101546020830190815260028201549060408401918252608060046003850154946060870195865201549401938452604051948552516020850152516040840152516060830152516080820152f35b3461064a57602036600319011261064a576004359063ffffffff60e01b821680920361064a57602091637965db0b60e01b81149081156122e7575b5015158152f35b6301ffc9a760e01b149050836122e0565b600435906001600160a01b038216820361064a57565b602435906001600160a01b038216820361064a57565b60243590811515820361064a57565b60a0810190811067ffffffffffffffff82111761234f57604052565b634e487b7160e01b5f52604160045260245ffd5b610120810190811067ffffffffffffffff82111761234f57604052565b90601f8019910116810190811067ffffffffffffffff82111761234f57604052565b67ffffffffffffffff811161234f57601f01601f191660200190565b604435906001600160801b038216820361064a57565b604090600319011261064a576004359060243590565b156123f157565b60405162461bcd60e51b815260206004820152601660248201527521b0b63632b91034b9903737ba1030b71030b236b4b760511b6044820152606490fd5b9190820391821161243c57565b634e487b7160e01b5f52601160045260245ffd5b9190915f838201938412911290801582169115161761243c57565b9060018060a01b0382165f52600460205260405f20815f5260205260405f20908154156124b7576124ad6124b39260016124a58487612be7565b910154612450565b92612c9e565b1390565b5050505f90565b51906001600160a01b038216820361064a57565b519061ffff8216820361064a57565b5190811515820361064a57565b908161012091031261064a576101006040519161250a83612363565b612513816124be565b8352612521602082016124d2565b6020840152612532604082016124e1565b6040840152612543606082016124be565b6060840152612554608082016124be565b608084015261256560a082016124be565b60a084015261257660c082016124be565b60c084015261258760e082016124be565b60e0840152015161010082015290565b1561259e57565b60405162461bcd60e51b815260206004820152601560248201527413585c9ad95d08191bd95cc81b9bdd08195e1a5cdd605a1b6044820152606490fd5b600160ff1b811461243c575f0390565b9081606091031261064a578051916040602083015192015190565b8115612610570490565b634e487b7160e01b5f52601260045260245ffd5b81810392915f13801582851316918412161761243c57565b81810292915f8212600160ff1b82141661243c57818405149015171561243c57565b9190820180921161243c57565b60025460405163c3c95c7b60e01b8152600481018390525f9161012090829060249082906001600160a01b03165afa9081156121d7575f916128dd575b5080516126bf906001600160a01b03161515612597565b516001600160a01b031691823b1561064a576040516315f800b960e11b8152935f8560048183885af19485156121d7576004956128c8575b5060018060a01b0316918281528460205260408120828252602052602060408220946040519687809263388c45ad60e11b82525afa9485156128bb578195612887575b50835490811561287d576003850194612754865488612624565b9182612764575b50505050505055565b670de0b6b3a764000061279a7feb7a4729d6bbf4946c56b18f3dc76fe7bba0d40422fc8596a49a02084a53b5859560209561263c565b0591818313156127e057906001604092016127b684825461265e565b905586815260058452206127cb82825461265e565b90555b604051908152a35f808080808061275b565b8183126127ef575b50506127ce565b60016127fa846125db565b9101805490919080821061285257505086825260058452604082205481548091115f1461284b576128369088845260058652604084205461242f565b878352600585526040832055555b5f806127e8565b5081612836565b9261287692612864836040949661242f565b9055888152600586522091825461242f565b9055612844565b5050505060030155565b9094506020813d6020116128b3575b816128a360209383612380565b81010312610cbc5751935f61273a565b3d9150612896565b50604051903d90823e3d90fd5b6128d59193505f90612380565b5f915f6126f7565b6128f691506101203d8111610432576104248183612380565b5f6126a8565b1561290357565b60405162461bcd60e51b8152602060048201526015602482015274496e76616c6964207661756c74206164647265737360581b6044820152606490fd5b60018060a01b03165f52600460205260405f20815f5260205260405f2054908115612a325760025460405163c3c95c7b60e01b8152600481019290925261012090829060249082906001600160a01b03165afa9081156121d7575f91612a38575b50516001600160a01b0316908115612a32576020600492604051938480926330204b1960e11b82525afa9081156121d7575f916129fc575b6129eb92505f8113156129ee576134dc565b90565b6129f7906125db565b6134dc565b90506020823d602011612a2a575b81612a1760209383612380565b8101031261064a576129eb9151906129d9565b3d9150612a0a565b50505f90565b612a5191506101203d8111610432576104248183612380565b5f6129a1565b15612a5e57565b60405162461bcd60e51b815260206004820152601f60248201527f416d6f756e742073686f756c642062652067726561746572207468616e2030006044820152606490fd5b15612aaa57565b60405162461bcd60e51b815260206004820152601e60248201527f496e73756666696369656e7420617661696c61626c652062616c616e636500006044820152606490fd5b15612af657565b60405162461bcd60e51b815260206004820152601060248201526f053697a65206d757374206265203e20360841b6044820152606490fd5b9060018060a01b0382165f52600460205260405f20815f5260205260405f2091825415612bdf5760405163223d677760e21b81526001600160a01b039190911660048201526024810191909152602081604481305afa9081156121d7575f91612bad575b508015612ba65760016129eb9201546135fc565b50505f1990565b90506020813d602011612bd7575b81612bc860209383612380565b8101031261064a57515f612b92565b3d9150612bbb565b5050505f1990565b60018060a01b03165f52600460205260405f20815f5260205260405f208054158015612c92575b612a325760025460405163c3c95c7b60e01b8152600481019390935261012090839060249082906001600160a01b03165afa9182156121d7575f92612c71575b5081516001600160a01b031615612a3257612c6b6129eb92613c64565b90613d58565b612c8b9192506101203d8111610432576104248183612380565b905f612c4e565b50600281015415612c0e565b60018060a01b03165f52600460205260405f20815f5260205260405f20548015612a325760025460405163c3c95c7b60e01b8152600481018490529061012090829060249082906001600160a01b03165afa80156121d7576129eb93612d44925f92612d58575b508151612d1c906001600160a01b03161515612597565b5f526006602052612d3e600160405f200154935f81135f14612d495791613c64565b906134dc565b613594565b612d52906125db565b91613c64565b612d729192506101203d8111610432576104248183612380565b905f612d05565b5f8181526020818152604080832033845290915290205460ff1615612d9b5750565b63e2517d3f60e01b5f523360045260245260445ffd5b6001600160a01b0381165f9081527fad3228b676f7d3cd4284a5443f17f1962b36e491b30a40b2405849e597ba5fb5602052604090205460ff16612e5b576001600160a01b03165f8181527fad3228b676f7d3cd4284a5443f17f1962b36e491b30a40b2405849e597ba5fb560205260408120805460ff191660011790553391907f2f8788117e7eff1d82e926ec794901d17c78024a50270940304540a733656f0d8180a4600190565b505f90565b5f818152602081815260408083206001600160a01b038616845290915290205460ff16612a32575f818152602081815260408083206001600160a01b0395909516808452949091528120805460ff19166001179055339291907f2f8788117e7eff1d82e926ec794901d17c78024a50270940304540a733656f0d9080a4600190565b5f818152602081815260408083206001600160a01b038616845290915290205460ff1615612a32575f818152602081815260408083206001600160a01b0395909516808452949091528120805460ff19169055339291907ff6391f5c32d9c69d2a47ea670b442974b53935d1edc7fd64eb21e047a839171b9080a4600190565b8181029291811591840414171561243c57565b9092919260018060a01b03821692835f52600460205260405f20825f5260205260405f2094858054612fa78382612450565b5f841290816134cd57845b5f8412806134be5784935b5f841293846134ab57612fd989829b5b5f811261349d576135fc565b80985f978c8c8b15998a5f1461337d5750505050600201555b8d5560048d01613003868254612450565b905584958415613339575b50505050613308575b505f8113156132a2576001880161302f82825461265e565b9055865f52600560205261304860405f2091825461265e565b90555b816131e0575b505080613060575b5050505050565b815f52600660205260405f20549061012060018060a01b03600254169360246040518096819363c3c95c7b60e01b835260048301525afa9283156121d7576004936020915f916131c1575b50516040516330204b1960e11b815294859182906001600160a01b03165afa9283156121d7575f93613189575b5090612d446001936130e9936134dc565b9301918254848110613147575b5050505410613109575f80808080613059565b60405162461bcd60e51b8152602060048201526016602482015275494d522062726561636820616674657220747261646560501b6044820152606490fd5b6131629281613159613167938861242f565b94858093613dd5565b61265e565b83555f52600560205261317f60405f2091825461265e565b90555f80806130f6565b9250906020833d6020116131b9575b816131a560209383612380565b8101031261064a5791519190612d446130d8565b3d9150613198565b6131da91506101203d8111610432576104248183612380565b5f6130ab565b60025460405163c3c95c7b60e01b815260048101869052929061012090849060249082906001600160a01b03165afa9283156121d7575f93613281575b50602083019161ffff835116613235575b5050613051565b61323e916134dc565b8061324a575b8061322e565b61ffff61325992511690613594565b9081613266575b80613244565b8161327461327a9387613dd5565b85613eba565b5f80613260565b61329b9193506101203d8111610432576104248183612380565b915f61321d565b6132ab906125db565b600188018054808311156132de57505f9150805488835260056020526132d66040842091825461242f565b90555561304b565b826132e89161242f565b9055865f52600560205261330160405f2091825461242f565b905561304b565b613333915061332d61331a84866134dc565b875f52600660205260405f205490613594565b90612450565b5f613017565b5f129350909183613371575b508215613358575b50505f80808061300e565b90915081613369575b505f8061334d565b90505f613361565b5f91935013915f613345565b9294919390925f8d138080613494575b8015613485575b156133cf575050916133bd6133c3926133b760026133c897960197885490612f62565b92612f62565b9061265e565b612606565b9055612ff2565b93509a50925092808d11155f146134765750670de0b6b3a76400008c5b821561345d5761340990613404600286015487612624565b61263c565b05985b8d61341f5750505f915060020155612ff2565b81613455575b508015613444575b613439575b5050612ff2565b60020155878e613432565b5084801561342d57505f831361342d565b90505f613425565b61346f90613404866002870154612624565b059861340c565b670de0b6b3a7640000906133ec565b50898015613394575088613394565b505f8b1361338d565b6134a6906125db565b6135fc565b612fd9896134b8836125db565b9b612fcd565b6134c7856125db565b93612fbd565b6134d6856125db565b94612fb2565b5f19828209828202918280831092039180830392146135835781670de0b6b3a76400001115613545577faccb18165bd6fe31ae1cf318dc5b51eee0e1ba569b88cd74c1773b91fac1066993670de0b6b3a7640000910990828211900360ee1b910360121c170290565b60405162461bcd60e51b815260206004820152601660248201527543616c63756c6174696f6e733a206f766572666c6f7760501b6044820152606490fd5b5050670de0b6b3a764000091500490565b5f19828209828202918280831092039180830392146135f157816127101115613545577fbc01a36e2eb1c432ca57a786c226809d495182a9930be0ded288ce703afb7e9193612710910990828211900360fc1b910360041c170290565b505061271091500490565b5f19670de0b6b3a7640000820991670de0b6b3a764000082029182808510940393808503941461368d578382111561354557670de0b6b3a7640000829109600182190182168092046002816003021880820260020302808202600203028082026002030280820260020302808202600203028091026002030293600183805f03040190848311900302920304170290565b5080919250156136a0576129eb91612606565b60405162461bcd60e51b8152602060048201526012602482015271043616c63756c6174696f6e733a20646976360741b6044820152606490fd5b91939280156137ea57600154604051633de222bb60e21b81526001600160a01b0394851660048201819052968516602482018190529490911695906020816044818a5afa9081156121d7575f916137b8575b508083116137b2575081925b83968461374d575b5050506129eb925061242f565b803b1561064a575f92836084926040519889958694632b2e0b7b60e21b8652600486015260018060a01b0316602485015260448401528760648401525af19283156121d7576129eb936137a2575b8080613740565b5f6137ac91612380565b5f61379b565b92613738565b90506020813d6020116137e2575b816137d360209383612380565b8101031261064a57515f61372c565b3d91506137c6565b50505090505f905f90565b9392905f90821561398257600154604051633de222bb60e21b81526001600160a01b039788166004820181905286891660248301819052989096921690602081604481855afa9081156121d7575f91613950575b5080861161394a575084955b86988761386d575b505050505050906129eb9161242f565b823b1561064a5760845f92836040519586948593632b2e0b7b60e21b8552600485015260018060a01b038a16602485015260448401528b60648401525af180156121d757613935575b506001546001600160a01b031690813b156104445760405163723301f360e01b81526001600160a01b039384166004820181905291909316602484015260448301869052606483015282908290608490829084905af1801561060657613920575b8080808061385d565b61392b828092612380565b6104465780613917565b6139429193505f90612380565b5f915f6138b6565b95613855565b90506020813d60201161397a575b8161396b60209383612380565b8101031261064a57515f613849565b3d915061395e565b5050505090505f905f90565b60208183031261064a5780519067ffffffffffffffff821161064a5701906101408282031261064a5760405191610140830183811067ffffffffffffffff82111761234f576040526139df816124be565b8352602081015160208401526139f7604082016124d2565b6040840152613a08606082016124d2565b60608401526080810151608084015260a081015160a0840152613a2d60c082016124e1565b60c0840152613a3e60e082016124e1565b60e0840152613a5061010082016124e1565b6101008401526101208101519067ffffffffffffffff821161064a570181601f8201121561064a57805190613a84826123a2565b92613a926040519485612380565b8284526020838301011161064a57815f9260208093018386015e8301015261012082015290565b905f9281158015613c4f575b613c495760015460e08201805160405163e48a5f7b60e01b81526001600160a01b0391821660048201529194925f9183916024918391165afa80156121d757613b4d926020613b2892670de0b6b3a7640000945f91613c27575b50015190612f62565b60808401805195519290910495909486926001600160a01b03908116929116906137f5565b80929150613ba9575b5050516001600160a01b031690813b156106025782916024839260405194859384926312a73fe360e21b845260048401525af1801561060657613b97575050565b613ba2828092612380565b6104465750565b60a001516001600160a01b03169081156115195782516001600160a01b031690823b1561064a5760405163117de2fd60e01b81526001600160a01b039290921660048301526024820152905f908290604490829084905af180156121d757613c12575b80613b56565b613c1f9193505f90612380565b5f915f613c0c565b613c4391503d805f833e613c3b8183612380565b81019061398e565b5f613b1f565b50505050565b5060808101516001600160a01b031615613ac5565b60608101516001600160a01b031680613cf3575b508051600491602091613c95906001600160a01b03161515612597565b516040516330204b1960e11b815292839182906001600160a01b03165afa9081156121d7575f91613cc4575090565b90506020813d602011613ceb575b81613cdf60209383612380565b8101031261064a575190565b3d9150613cd2565b602060049160405192838092634c6afee560e11b82525afa5f9181613d24575b5015613c78578015613c7857905090565b9091506020813d602011613d50575b81613d4060209383612380565b8101031261064a5751905f613d13565b3d9150613d33565b9080158015613dcc575b8015613dc0575b612a32578154670de0b6b3a7640000925f8213918215613db157915b15613da057613d9c92600261340492015490612624565b0590565b613d9c926002613404920154612624565b613dba906125db565b91613d85565b50600282015415613d69565b50815415613d62565b908015613eb657600154604051637456d92360e01b81526001600160a01b03938416600482018190529390929160209184916024918391165afa9182156121d7575f92613e80575b50613e3491925f52600560205260405f205461265e565b11613e3b57565b60405162461bcd60e51b815260206004820152601760248201527f496e73756666696369656e7420636f6c6c61746572616c0000000000000000006044820152606490fd5b91506020823d602011613eae575b81613e9b60209383612380565b8101031261064a57613e34915191613e1d565b3d9150613e8e565b5050565b905f9281158015613ff0575b613c495760015460e08201805160405163e48a5f7b60e01b81526001600160a01b0391821660048201529194925f9183916024918391165afa80156121d757613f28926020613b2892670de0b6b3a7640000945f91613c275750015190612f62565b80929150613f72575b5050516001600160a01b031690813b15610602578291602483926040519485938492633e36a51760e01b845260048401525af1801561060657613b97575050565b60a001516001600160a01b03169081156115195782516001600160a01b031690823b1561064a5760405163117de2fd60e01b81526001600160a01b039290921660048301526024820152905f908290604490829084905af180156121d757613fdb575b80613f31565b613fe89193505f90612380565b5f915f613fd5565b5060808101516001600160a01b031615613ec6565b90614029575080511561401a57602081519101fd5b63d6bda27560e01b5f5260045ffd5b8151158061405a575b61403a575090565b639996b31560e01b5f9081526001600160a01b0391909116600452602490fd5b50803b1561403256fe360894a13ba1a3210667c828492db98dca3e2076cc3735a920a3ca505d382bbcf0c57e16840df040f15088dc2f81fe391c3923bec73e23a9662efc9c229c6a00a26469706673582212203c41b06b4a45ec22c9b3f3398d4add1f63269c9f88ff2ea105a462dfcbece3d364736f6c634300081e0033f0c57e16840df040f15088dc2f81fe391c3923bec73e23a9662efc9c229c6a00","linkReferences":{}},"methodIdentifiers":{"DEFAULT_ADMIN_ROLE()":"a217fddf","UPGRADE_INTERFACE_VERSION()":"ad3cb1cc","WhitelistedLiquidators(address)":"c7d19337","_totalReservedMargin(address)":"3811ff31","addMargin(bytes32,uint256)":"9e0a7378","adminClearStuckPosition(address,bytes32)":"24e51cfc","closePosition(bytes32,uint128,uint256)":"fe2b5238","deposit(address,uint256)":"47e7ef24","getAccountValue(address)":"5ae80951","getMaintenanceMargin(address,bytes32)":"ea181b62","getMarginRatio(address,bytes32)":"fd715d17","getNotional(address,bytes32)":"88f59ddc","getPosition(address,bytes32)":"0fa8f516","getRoleAdmin(bytes32)":"248a9ca3","grantRole(bytes32,address)":"2f2ff15d","hasRole(bytes32,address)":"91d14854","initialize(address,address,address)":"c0c53b8b","isLiquidatable(address,bytes32)":"2e16fd6b","liquidate(address,bytes32,uint128)":"512159db","marketRegistry()":"ecb96fe6","marketRiskParams(bytes32)":"d22460bd","openPosition(bytes32,bool,uint128,uint256)":"d5528f5d","pauseMarket(bytes32,bool)":"13fa5292","positions(address,bytes32)":"34176a6d","proxiableUUID()":"52d1902d","removeMargin(bytes32,uint256)":"97709b5d","removeWhitelistedLiquidator(address)":"f2d7e950","renounceRole(bytes32,address)":"36568abe","revokeRole(bytes32,address)":"d547741f","setRiskParams(bytes32,uint256,uint256,uint256,uint256)":"468e0000","setVault(address)":"6817031b","setWhitelistedLiquidator(address,bool)":"21e49bfd","settleFunding(bytes32,address)":"62e6b34c","supportsInterface(bytes4)":"01ffc9a7","upgradeToAndCall(address,bytes)":"4f1ef286","vault()":"fbfa77cf","withdraw(address,uint256)":"f3fef3a3"},"id":105}