{"abi":[{"type":"constructor","inputs":[],"stateMutability":"nonpayable"},{"type":"function","name":"DEFAULT_ADMIN_ROLE","inputs":[],"outputs":[{"name":"","type":"bytes32","internalType":"bytes32"}],"stateMutability":"view"},{"type":"function","name":"VAULT_ADMIN_ROLE","inputs":[],"outputs":[{"name":"","type":"bytes32","internalType":"bytes32"}],"stateMutability":"view"},{"type":"function","name":"balanceOf","inputs":[{"name":"user","type":"address","internalType":"address"},{"name":"token","type":"address","internalType":"address"}],"outputs":[{"name":"","type":"uint256","internalType":"uint256"}],"stateMutability":"view"},{"type":"function","name":"clearinghouse","inputs":[],"outputs":[{"name":"","type":"address","internalType":"address"}],"stateMutability":"view"},{"type":"function","name":"collateralConfigs","inputs":[{"name":"token","type":"address","internalType":"address"}],"outputs":[{"name":"token","type":"address","internalType":"address"},{"name":"baseUnit","type":"uint256","internalType":"uint256"},{"name":"haircutBps","type":"uint16","internalType":"uint16"},{"name":"liqIncentiveBps","type":"uint16","internalType":"uint16"},{"name":"cap","type":"uint256","internalType":"uint256"},{"name":"accountCap","type":"uint256","internalType":"uint256"},{"name":"enabled","type":"bool","internalType":"bool"},{"name":"depositPaused","type":"bool","internalType":"bool"},{"name":"withdrawPaused","type":"bool","internalType":"bool"},{"name":"oracleSymbol","type":"string","internalType":"string"}],"stateMutability":"view"},{"type":"function","name":"creditFromPool","inputs":[{"name":"pool","type":"address","internalType":"address"},{"name":"token","type":"address","internalType":"address"},{"name":"user","type":"address","internalType":"address"},{"name":"amount","type":"uint256","internalType":"uint256"}],"outputs":[],"stateMutability":"nonpayable"},{"type":"function","name":"deposit","inputs":[{"name":"token","type":"address","internalType":"address"},{"name":"amount","type":"uint256","internalType":"uint256"},{"name":"onBehalfOf","type":"address","internalType":"address"}],"outputs":[{"name":"received","type":"uint256","internalType":"uint256"}],"stateMutability":"nonpayable"},{"type":"function","name":"getAccountCollateralValueX18","inputs":[{"name":"user","type":"address","internalType":"address"}],"outputs":[{"name":"usdX18","type":"uint256","internalType":"uint256"}],"stateMutability":"view"},{"type":"function","name":"getClearinghouse","inputs":[],"outputs":[{"name":"","type":"address","internalType":"address"}],"stateMutability":"view"},{"type":"function","name":"getConfig","inputs":[{"name":"token","type":"address","internalType":"address"}],"outputs":[{"name":"","type":"tuple","internalType":"struct ICollateralVault.CollateralConfig","components":[{"name":"token","type":"address","internalType":"address"},{"name":"baseUnit","type":"uint256","internalType":"uint256"},{"name":"haircutBps","type":"uint16","internalType":"uint16"},{"name":"liqIncentiveBps","type":"uint16","internalType":"uint16"},{"name":"cap","type":"uint256","internalType":"uint256"},{"name":"accountCap","type":"uint256","internalType":"uint256"},{"name":"enabled","type":"bool","internalType":"bool"},{"name":"depositPaused","type":"bool","internalType":"bool"},{"name":"withdrawPaused","type":"bool","internalType":"bool"},{"name":"oracleSymbol","type":"string","internalType":"string"}]}],"stateMutability":"view"},{"type":"function","name":"getOracle","inputs":[],"outputs":[{"name":"","type":"address","internalType":"address"}],"stateMutability":"view"},{"type":"function","name":"getRoleAdmin","inputs":[{"name":"role","type":"bytes32","internalType":"bytes32"}],"outputs":[{"name":"","type":"bytes32","internalType":"bytes32"}],"stateMutability":"view"},{"type":"function","name":"getTokenValueX18","inputs":[{"name":"token","type":"address","internalType":"address"},{"name":"amount","type":"uint256","internalType":"uint256"}],"outputs":[{"name":"usdX18","type":"uint256","internalType":"uint256"}],"stateMutability":"view"},{"type":"function","name":"grantRole","inputs":[{"name":"role","type":"bytes32","internalType":"bytes32"},{"name":"account","type":"address","internalType":"address"}],"outputs":[],"stateMutability":"nonpayable"},{"type":"function","name":"hasRole","inputs":[{"name":"role","type":"bytes32","internalType":"bytes32"},{"name":"account","type":"address","internalType":"address"}],"outputs":[{"name":"","type":"bool","internalType":"bool"}],"stateMutability":"view"},{"type":"function","name":"isDepositPaused","inputs":[{"name":"token","type":"address","internalType":"address"}],"outputs":[{"name":"","type":"bool","internalType":"bool"}],"stateMutability":"view"},{"type":"function","name":"isEnabled","inputs":[{"name":"token","type":"address","internalType":"address"}],"outputs":[{"name":"","type":"bool","internalType":"bool"}],"stateMutability":"view"},{"type":"function","name":"isWithdrawPaused","inputs":[{"name":"token","type":"address","internalType":"address"}],"outputs":[{"name":"","type":"bool","internalType":"bool"}],"stateMutability":"view"},{"type":"function","name":"oracle","inputs":[],"outputs":[{"name":"","type":"address","internalType":"address"}],"stateMutability":"view"},{"type":"function","name":"registerCollateral","inputs":[{"name":"cfg","type":"tuple","internalType":"struct ICollateralVault.CollateralConfig","components":[{"name":"token","type":"address","internalType":"address"},{"name":"baseUnit","type":"uint256","internalType":"uint256"},{"name":"haircutBps","type":"uint16","internalType":"uint16"},{"name":"liqIncentiveBps","type":"uint16","internalType":"uint16"},{"name":"cap","type":"uint256","internalType":"uint256"},{"name":"accountCap","type":"uint256","internalType":"uint256"},{"name":"enabled","type":"bool","internalType":"bool"},{"name":"depositPaused","type":"bool","internalType":"bool"},{"name":"withdrawPaused","type":"bool","internalType":"bool"},{"name":"oracleSymbol","type":"string","internalType":"string"}]}],"outputs":[],"stateMutability":"nonpayable"},{"type":"function","name":"registeredTokens","inputs":[{"name":"","type":"uint256","internalType":"uint256"}],"outputs":[{"name":"","type":"address","internalType":"address"}],"stateMutability":"view"},{"type":"function","name":"renounceRole","inputs":[{"name":"role","type":"bytes32","internalType":"bytes32"},{"name":"callerConfirmation","type":"address","internalType":"address"}],"outputs":[],"stateMutability":"nonpayable"},{"type":"function","name":"revokeRole","inputs":[{"name":"role","type":"bytes32","internalType":"bytes32"},{"name":"account","type":"address","internalType":"address"}],"outputs":[],"stateMutability":"nonpayable"},{"type":"function","name":"seize","inputs":[{"name":"from","type":"address","internalType":"address"},{"name":"to","type":"address","internalType":"address"},{"name":"token","type":"address","internalType":"address"},{"name":"amount","type":"uint256","internalType":"uint256"}],"outputs":[],"stateMutability":"nonpayable"},{"type":"function","name":"setClearinghouse","inputs":[{"name":"_clearinghouse","type":"address","internalType":"address"}],"outputs":[],"stateMutability":"nonpayable"},{"type":"function","name":"setCollateralParams","inputs":[{"name":"token","type":"address","internalType":"address"},{"name":"cfg","type":"tuple","internalType":"struct ICollateralVault.CollateralConfig","components":[{"name":"token","type":"address","internalType":"address"},{"name":"baseUnit","type":"uint256","internalType":"uint256"},{"name":"haircutBps","type":"uint16","internalType":"uint16"},{"name":"liqIncentiveBps","type":"uint16","internalType":"uint16"},{"name":"cap","type":"uint256","internalType":"uint256"},{"name":"accountCap","type":"uint256","internalType":"uint256"},{"name":"enabled","type":"bool","internalType":"bool"},{"name":"depositPaused","type":"bool","internalType":"bool"},{"name":"withdrawPaused","type":"bool","internalType":"bool"},{"name":"oracleSymbol","type":"string","internalType":"string"}]}],"outputs":[],"stateMutability":"nonpayable"},{"type":"function","name":"setOracle","inputs":[{"name":"_oracle","type":"address","internalType":"address"}],"outputs":[],"stateMutability":"nonpayable"},{"type":"function","name":"setPause","inputs":[{"name":"token","type":"address","internalType":"address"},{"name":"depositsPaused","type":"bool","internalType":"bool"},{"name":"withdrawalsPaused","type":"bool","internalType":"bool"}],"outputs":[],"stateMutability":"nonpayable"},{"type":"function","name":"supportsInterface","inputs":[{"name":"interfaceId","type":"bytes4","internalType":"bytes4"}],"outputs":[{"name":"","type":"bool","internalType":"bool"}],"stateMutability":"view"},{"type":"function","name":"sweepFees","inputs":[{"name":"token","type":"address","internalType":"address"},{"name":"to","type":"address","internalType":"address"},{"name":"amount","type":"uint256","internalType":"uint256"}],"outputs":[],"stateMutability":"nonpayable"},{"type":"function","name":"totalOf","inputs":[{"name":"token","type":"address","internalType":"address"}],"outputs":[{"name":"","type":"uint256","internalType":"uint256"}],"stateMutability":"view"},{"type":"function","name":"userBalances","inputs":[{"name":"user","type":"address","internalType":"address"},{"name":"token","type":"address","internalType":"address"}],"outputs":[{"name":"amount","type":"uint256","internalType":"uint256"}],"stateMutability":"view"},{"type":"function","name":"withdrawFor","inputs":[{"name":"user","type":"address","internalType":"address"},{"name":"token","type":"address","internalType":"address"},{"name":"amount","type":"uint256","internalType":"uint256"},{"name":"to","type":"address","internalType":"address"}],"outputs":[],"stateMutability":"nonpayable"},{"type":"event","name":"ClearinghouseSet","inputs":[{"name":"clearinghouse","type":"address","indexed":true,"internalType":"address"}],"anonymous":false},{"type":"event","name":"CollateralParamsUpdated","inputs":[{"name":"token","type":"address","indexed":true,"internalType":"address"},{"name":"haircutBps","type":"uint16","indexed":false,"internalType":"uint16"},{"name":"liqIncentiveBps","type":"uint16","indexed":false,"internalType":"uint16"},{"name":"cap","type":"uint256","indexed":false,"internalType":"uint256"},{"name":"accountCap","type":"uint256","indexed":false,"internalType":"uint256"},{"name":"enabled","type":"bool","indexed":false,"internalType":"bool"},{"name":"depositPaused","type":"bool","indexed":false,"internalType":"bool"},{"name":"withdrawPaused","type":"bool","indexed":false,"internalType":"bool"},{"name":"oracleSymbol","type":"string","indexed":false,"internalType":"string"}],"anonymous":false},{"type":"event","name":"CollateralRegistered","inputs":[{"name":"token","type":"address","indexed":true,"internalType":"address"},{"name":"baseUnit","type":"uint256","indexed":false,"internalType":"uint256"},{"name":"haircutBps","type":"uint16","indexed":false,"internalType":"uint16"},{"name":"liqIncentiveBps","type":"uint16","indexed":false,"internalType":"uint16"},{"name":"cap","type":"uint256","indexed":false,"internalType":"uint256"},{"name":"accountCap","type":"uint256","indexed":false,"internalType":"uint256"},{"name":"enabled","type":"bool","indexed":false,"internalType":"bool"},{"name":"depositPaused","type":"bool","indexed":false,"internalType":"bool"},{"name":"withdrawPaused","type":"bool","indexed":false,"internalType":"bool"},{"name":"oracleSymbol","type":"string","indexed":false,"internalType":"string"}],"anonymous":false},{"type":"event","name":"Deposit","inputs":[{"name":"user","type":"address","indexed":true,"internalType":"address"},{"name":"token","type":"address","indexed":true,"internalType":"address"},{"name":"amount","type":"uint256","indexed":false,"internalType":"uint256"},{"name":"onBehalfOf","type":"address","indexed":true,"internalType":"address"},{"name":"received","type":"uint256","indexed":false,"internalType":"uint256"}],"anonymous":false},{"type":"event","name":"ExternalCredit","inputs":[{"name":"pool","type":"address","indexed":true,"internalType":"address"},{"name":"user","type":"address","indexed":true,"internalType":"address"},{"name":"token","type":"address","indexed":true,"internalType":"address"},{"name":"amount","type":"uint256","indexed":false,"internalType":"uint256"}],"anonymous":false},{"type":"event","name":"OracleSet","inputs":[{"name":"oracle","type":"address","indexed":true,"internalType":"address"}],"anonymous":false},{"type":"event","name":"PauseUpdated","inputs":[{"name":"token","type":"address","indexed":true,"internalType":"address"},{"name":"depositsPaused","type":"bool","indexed":false,"internalType":"bool"},{"name":"withdrawalsPaused","type":"bool","indexed":false,"internalType":"bool"}],"anonymous":false},{"type":"event","name":"RoleAdminChanged","inputs":[{"name":"role","type":"bytes32","indexed":true,"internalType":"bytes32"},{"name":"previousAdminRole","type":"bytes32","indexed":true,"internalType":"bytes32"},{"name":"newAdminRole","type":"bytes32","indexed":true,"internalType":"bytes32"}],"anonymous":false},{"type":"event","name":"RoleGranted","inputs":[{"name":"role","type":"bytes32","indexed":true,"internalType":"bytes32"},{"name":"account","type":"address","indexed":true,"internalType":"address"},{"name":"sender","type":"address","indexed":true,"internalType":"address"}],"anonymous":false},{"type":"event","name":"RoleRevoked","inputs":[{"name":"role","type":"bytes32","indexed":true,"internalType":"bytes32"},{"name":"account","type":"address","indexed":true,"internalType":"address"},{"name":"sender","type":"address","indexed":true,"internalType":"address"}],"anonymous":false},{"type":"event","name":"Seize","inputs":[{"name":"from","type":"address","indexed":true,"internalType":"address"},{"name":"to","type":"address","indexed":true,"internalType":"address"},{"name":"token","type":"address","indexed":true,"internalType":"address"},{"name":"amount","type":"uint256","indexed":false,"internalType":"uint256"}],"anonymous":false},{"type":"event","name":"Withdraw","inputs":[{"name":"operator","type":"address","indexed":true,"internalType":"address"},{"name":"user","type":"address","indexed":true,"internalType":"address"},{"name":"token","type":"address","indexed":true,"internalType":"address"},{"name":"amount","type":"uint256","indexed":false,"internalType":"uint256"},{"name":"to","type":"address","indexed":false,"internalType":"address"}],"anonymous":false},{"type":"error","name":"AccessControlBadConfirmation","inputs":[]},{"type":"error","name":"AccessControlUnauthorizedAccount","inputs":[{"name":"account","type":"address","internalType":"address"},{"name":"neededRole","type":"bytes32","internalType":"bytes32"}]},{"type":"error","name":"SafeERC20FailedOperation","inputs":[{"name":"token","type":"address","internalType":"address"}]}],"bytecode":{"object":"0x608060405234601f57600f336023565b5060405161259590816100ac8239f35b5f80fd5b6001600160a01b0381165f9081525f5160206126415f395f51905f52602052604090205460ff1660a6576001600160a01b03165f8181525f5160206126415f395f51905f5260205260408120805460ff191660011790553391907f2f8788117e7eff1d82e926ec794901d17c78024a50270940304540a733656f0d8180a4600190565b505f9056fe6080806040526004361015610012575f80fd5b5f3560e01c90816301ffc9a714611cef57508063248a9ca314611cc55780632f2ff15d14611c885780633216fe0e14611a0457806336568abe146119c057806337d4b65914611910578063421361e9146117f057806356f02113146117ad5780635d4f5f9714610ed0578063602a63641461176a578063723301f3146116165780637456d9231461138e5780637adbf973146112de5780637dc0d1d0146112b6578063833b1fce146112b657806389022dd6146112875780638cf18e64146111c05780639015d37114611180578063912c2673146110f657806391d14854146110ae5780639a0ba2ea1461106c5780639e34111914611032578063a217fddf14611018578063acb82dec14610ef8578063adb5198014610187578063b1cb0f4214610ed0578063c909985b14610e7d578063d547741f14610e39578063e48a5f7b14610cb2578063f3339c2b1461090b578063f45346dc1461059c578063f4aad445146101db5763f7888aec14610187575f80fd5b346101d75760403660031901126101d7576101a0611d58565b6101a8611d42565b6001600160a01b039182165f908152600460209081526040808320949093168252928352819020549051908152f35b5f80fd5b346101d75760403660031901126101d7576101f4611d58565b6024359067ffffffffffffffff82116101d757816004019061014060031984360301126101d757335f9081525f5160206125405f395f51905f52602052604090205460ff168015610578575b61024990611f23565b6001600160a01b039081165f8181526003602052604090209390929161026e836122c9565b85546001600160a01b0319169116178455602481013560018501556002840191604482019161ffff61029f846122dd565b16938054606483019563ffff00006102b6886122dd565b60101b169163ffffffff19161717905560848101359586600382015560a4820135806004830155600582019260c48101956103056102f3886122ec565b869060ff801983541691151516179055565b610124600660e484019561033161031b886122ec565b895461ff00191690151560081b61ff0016178955565b61035b6101048601986103438a6122ec565b815462ff0000191690151560101b62ff000016179055565b0192019161036983886122f9565b9067ffffffffffffffff8211610564576103838354611dbc565b601f811161051f575b505f90601f831160011461047257946104186104127f9101e49cfe6155787039fd2259da30ad237328bea3f567d6f7d05b4274b9e4179e9f9461040c61ffff9f9e9c9961ffff9c996104629f9c99846104129561041e9a610406955f92610467575b50508160011b915f199060031b1c19161790556122dd565b9e6122dd565b9b6122ec565b966122ec565b966122f9565b9690976040519b8c9b168b521660208a01526040890152606088015215156080870152151560a0860152151560c085015261010060e085015261010084019161232c565b0390a2005b013590505f806103ee565b601f19831691845f5260205f20925f5b81811061050757507f9101e49cfe6155787039fd2259da30ad237328bea3f567d6f7d05b4274b9e4179e9f9461040c61ffff9f9e9c999461ffff9c996104629f9c9960018561041e9a610406956104189a610412996104129b106104ee575b505050811b0190556122dd565b01355f19600384901b60f8161c191690555f80806104e1565b91936020600181928787013581550195019201610482565b835f5260205f20601f840160051c8101916020851061055a575b601f0160051c01905b81811061054f575061038c565b5f8155600101610542565b9091508190610539565b634e487b7160e01b5f52604160045260245ffd5b50335f9081525f5160206125205f395f51905f52602052604090205460ff16610240565b346101d75760603660031901126101d7576105b5611d58565b602435906044356001600160a01b03811691908290036101d7576105e460018060a01b03600254163314611f23565b60018060a01b031690815f52600360205260405f20916040519361060785611df4565b60018060a01b0384541685526001840154602086015261ffff6002850154818116604088015260101c1660608601526003840154946080810195865261069c60048601549560a08301968752600581015492610120610691600660c084019460ff88161515865260ff60e0860198818160081c1615158a5260101c16151561010086015201611e33565b910152511515611f97565b516108d4576106ac811515611f5d565b6106b783151561206a565b6040516370a0823160e01b8152306004820152602081602481865afa908115610830575f916108a2575b5061071c6040516323b872dd60e01b602082015285602482015230604482015283606482015260648152610716608482611e11565b846124c7565b6040516370a0823160e01b815230600482015290602082602481875afa8015610830575f9061086e575b61075092506120e8565b93805161083b575b5084516107be575b60209450825f526004855260405f20825f52855260405f20610783858254611fd7565b905560405190815283858201527faaefaf378e10f40556b2167ea878af7e62d89229b0bce3924630aabf1ee611ff60403392a4604051908152f35b6040516370a0823160e01b8152306004820152602081602481865afa908115610830575f916107fd575b506107f890602096511015612032565b610760565b90506020813d602011610828575b8161081860209383611e11565b810103126101d7575160206107e8565b3d915061080b565b6040513d5f823e3d90fd5b61086890845f52600460205260405f20845f5260205261085f8660405f2054611fd7565b90511015611ff8565b85610758565b506020823d60201161089a575b8161088860209383611e11565b810103126101d7576107509151610746565b3d915061087b565b90506020813d6020116108cc575b816108bd60209383611e11565b810103126101d75751866106e1565b3d91506108b0565b60405162461bcd60e51b815260206004820152600f60248201526e11195c1bdcda5d1cc81c185d5cd959608a1b6044820152606490fd5b346101d75760203660031901126101d75760043567ffffffffffffffff81116101d757806004019061014060031982360301126101d757335f9081525f5160206125405f395f51905f52602052604090205460ff168015610c8e575b61097090611f23565b6001600160a01b03610981836122c9565b165f908152600360205260409020916001600160a01b036109a1826122c9565b166bffffffffffffffffffffffff60a01b84541617835560248201358060018501556002840191604484019461ffff6109d9876122dd565b16938054606487019563ffff00006109f0886122dd565b60101b169163ffffffff19161717905560848501359586600383015560a4860135928360048401556005830160c4880193610a3f610a2d866122ec565b839060ff801983541691151516179055565b610124600660e48b0192610a6b610a55856122ec565b865461ff00191690151560081b61ff0016178655565b610a7d6101048d0195610343876122ec565b01990198610a8b8a856122f9565b9067ffffffffffffffff8211610564578190610aa78454611dbc565b601f8111610c3e575b505f90601f8311600114610bd7575f92610bcc575b50508160011b915f199060031b1c19161790555b610ae2836122c9565b956005549a680100000000000000008c101561056457610b787f579b083822bdc58bb71d251698d15cc735ca4c864b903f9d02f602972e0cecf29b61046299610b3461ffff9f60018101600555611ef7565b81546001600160a01b0393841660039290921b91821b9390911b19169190911790556104186104128061040c610b72610b6c8c6122c9565b9c6122dd565b9f6122dd565b9c9097816040519c8d9c8d521660208c01521660408a015260608901526080880152151560a0870152151560c0860152151560e085015261012061010085015260018060a01b03169561012084019161232c565b013590508d80610ac5565b909150601f19831691845f5260205f20925f5b818110610c265750908460019594939210610c0d575b505050811b019055610ad9565b01355f19600384901b60f8161c191690558d8080610c00565b91936020600181928787013581550195019201610bea565b909150835f5260205f20601f840160051c81019160208510610c84575b90601f859493920160051c01905b818110610c765750610ab0565b5f8155849350600101610c69565b9091508190610c5b565b50335f9081525f5160206125205f395f51905f52602052604090205460ff16610967565b346101d75760203660031901126101d757610ccb611d58565b6060610120604051610cdc81611df4565b5f81525f60208201525f60408201525f838201525f60808201525f60a08201525f60c08201525f60e08201525f610100820152015260018060a01b03165f526003602052602060405f20610e3560405191610d3683611df4565b60018060a01b03815416835261010060ff84600184015493878201948552600281015461ffff6040840191818116835281606086019160101c1681528160038501549360808701948552610dc7600660048801549760a08a019889528a60058201549c8b60c08f9d019c8d8482161515905260e082019e8f9160081c1615159052019c60101c1615158c5201611e33565b996101208d019a8b526040518e819f9e829f835260018060a01b039051169101525160408d0152511660608b0152511660808901525160a08801525160c087015251151560e08601525115156101008501525115156101208401525161014080840152610160830190611ed3565b0390f35b346101d75760403660031901126101d757610e7b600435610e58611d42565b90610e76610e71825f525f602052600160405f20015490565b61234c565b61240c565b005b346101d75760603660031901126101d757610e96611d58565b610e9e611d42565b60443590610eb760018060a01b03600254163314611f23565b81610ebe57005b610e7b926001600160a01b031661248c565b346101d7575f3660031901126101d7576002546040516001600160a01b039091168152602090f35b346101d7577f7ad5f1177a9fb541e791136a77d0325da28a845a6e72721024d24cb9d07cabd56020610f2936611d6e565b949192610f4460018060a09794971b03600254163314611f23565b610f4f861515611f5d565b6001600160a01b03169283151580611006575b610f6b9061206a565b5f8481526004835260408082206001600160a01b03881683528452902054610f95908711156120a5565b5f8481526004835260408082206001600160a01b0388168352845290208054610fbf9088906120e8565b905560018060a01b031693845f526004825260405f2060018060a01b0382165f52825260405f20610ff1878254611fd7565b90556040519586526001600160a01b031694a4005b506001600160a01b0381161515610f62565b346101d7575f3660031901126101d75760206040515f8152f35b346101d7575f3660031901126101d75760206040517f7edcee67725a77bfa311b39349d7e96df9b23fbdbdcb328dfc17d77926920c138152f35b346101d75760203660031901126101d7576004356005548110156101d757611095602091611ef7565b905460405160039290921b1c6001600160a01b03168152f35b346101d75760403660031901126101d7576110c7611d42565b6004355f525f60205260405f209060018060a01b03165f52602052602060ff60405f2054166040519015158152f35b346101d75760203660031901126101d757602460206001600160a01b0361111b611d58565b16604051928380926370a0823160e01b82523060048301525afa8015610830575f9061114d575b602090604051908152f35b506020813d602011611178575b8161116760209383611e11565b810103126101d75760209051611142565b3d915061115a565b346101d75760203660031901126101d7576001600160a01b036111a1611d58565b165f526003602052602060ff600560405f200154166040519015158152f35b346101d75760203660031901126101d7576001600160a01b036111e1611d58565b165f52600360205260405f2060018060a01b03815416610e3560018301549260ff600282015491600381015460048201549061ffff611227600660058601549501611e33565b95604051998a998a5260208a015281811660408a015260101c166060880152608087015260a0860152818116151560c0860152818160081c16151560e086015260101c161515610100840152610140610120840152610140830190611ed3565b346101d75760403660031901126101d75760206112ae6112a5611d58565b6024359061214e565b604051908152f35b346101d7575f3660031901126101d7576001546040516001600160a01b039091168152602090f35b346101d75760203660031901126101d7576112f7611d58565b335f9081525f5160206125405f395f51905f52602052604090205460ff16801561136a575b61132590611f23565b600180546001600160a01b0319166001600160a01b039290921691821790557f3f32684a32a11dabdbb8c0177de80aa3ae36a004d75210335b49e544e48cd0aa5f80a2005b50335f9081525f5160206125205f395f51905f52602052604090205460ff1661131c565b346101d75760203660031901126101d7576113a7611d58565b5f6040519182836020600554928381520160055f527f036b6384b5eca791c62761152d0c79bb0604c104a5fb6f4eb0703f3154bb3db0925f5b8181106115f45750506113f592500384611e11565b6001546001600160a01b03918216929116905f905b8451821015611142576001600160a01b0361142583876120f5565b51165f52600360205260405f206040519161143f83611df4565b60018060a01b03825416835260018201546020840190815260028301549261ffff6040860194818116865260101c16606086015260038101546080860152600481015460a08601526101206114c2600660058401549360ff60c08a019581811615158752818160081c16151560e08c015260101c1615156101008a015201611e33565b950194855251156115e7575f8781526004602052604090206001600160a01b036114ec878b6120f5565b511660018060a01b03165f5260205260405f20549384156115d957602061152f91516040518093819263524f388960e01b83528460048401526024830190611ed3565b03818a5afa908115610830575f9161159e575b5061156361157294939261155b60019761ffff94612109565b90519061211c565b9251168061157b575b50611fd7565b915b019061140a565b612710919261ffff61158f6115969361213a565b1690612109565b04908861156c565b9050602093929193813d82116115d1575b816115bc60209383611e11565b810103126101d7575191929091611563611542565b3d91506115af565b505092905060019150611574565b5092905060019150611574565b84546001600160a01b03168352600194850194889450602090930192016113e0565b346101d75760803660031901126101d75761162f611d58565b611637611d42565b60643590604435906001600160a01b038316908184036101d75761166660018060a01b03600254163314611f23565b6001600160a01b03165f8181526003602052604090206005015490949060101c60ff1661173057826116fd9161169d821515611f5d565b6001600160a01b0316946116b286151561206a565b855f52600460205260405f20875f526020526116d48260405f205410156120a5565b855f52600460205260405f20875f5260205260405f206116f58382546120e8565b90558661248c565b60405191825260208201527f7096ec52c72d33454045b00e3125b1795f94600354906408c4db6b6aba56252d60403392a4005b60405162461bcd60e51b815260206004820152601260248201527115da5d1a191c985dd85b1cc81c185d5cd95960721b6044820152606490fd5b346101d75760203660031901126101d7576001600160a01b0361178b611d58565b165f526003602052602060ff600560405f20015460081c166040519015158152f35b346101d75760203660031901126101d7576001600160a01b036117ce611d58565b165f526003602052602060ff600560405f20015460101c166040519015158152f35b346101d75760603660031901126101d757611809611d58565b602435908115158083036101d757604435908115158083036101d757335f9081525f5160206125405f395f51905f52602052604090819020547f0beab691d6c6a3b87231c2e7fe1233120c99bf802d9bfdc49879abc5fb9554109591946118c492909160ff1680156118d1575b61187f90611f23565b6001600160a01b03165f8181526003602052869020600501805462ffff00191661ff0099151560081b999099169890981791151560101b62ff00001691909117909655565b82519182526020820152a2005b507f7edcee67725a77bfa311b39349d7e96df9b23fbdbdcb328dfc17d77926920c135f908152602081815287822033835290528690205460ff16611876565b346101d75760203660031901126101d757611929611d58565b335f9081525f5160206125405f395f51905f52602052604090205460ff16801561199c575b61195790611f23565b600280546001600160a01b0319166001600160a01b039290921691821790557f0ff2c850d6c5bbe4a9190d1ac70e84a2d44e11374b401e9f27c1c56a93dc51015f80a2005b50335f9081525f5160206125205f395f51905f52602052604090205460ff1661194e565b346101d75760403660031901126101d7576119d9611d42565b336001600160a01b038216036119f557610e7b9060043561240c565b63334bd91960e11b5f5260045ffd5b346101d757611a1236611d6e565b92611a2860018060a01b03600254163314611f23565b6001600160a01b0316908115611c54576001600160a01b0316918215611c2057611a53841515611f5d565b60018060a01b031692835f52600360205260405f20604051611a7481611df4565b60018060a01b0382541681526001820154602082015261ffff6002830154818116604084015260101c166060820152611afb6003830154926080830193845260048101549260a08101938452610120610691600660058501549460ff60c086019681811615158852818160081c16151560e088015260101c16151561010086015201611e33565b8051611bf6575b508051611b59575b5060207f1319d4c64a4fd279f0325e3de380f87f84ab3a42c61adeb02b1e8f51029051de91845f526004825260405f20865f52825260405f20611b4e828254611fd7565b9055604051908152a4005b6040516370a0823160e01b81523060048201529190602083602481895afa928315610830575f93611bbe575b5090611bb77f1319d4c64a4fd279f0325e3de380f87f84ab3a42c61adeb02b1e8f51029051de93602093511015612032565b9150611b0a565b9250906020833d602011611bee575b81611bda60209383611e11565b810103126101d75791519190611bb7611b85565b3d9150611bcd565b611c1a90855f52600460205260405f20875f5260205261085f8460405f2054611fd7565b85611b02565b60405162461bcd60e51b815260206004820152600c60248201526b55736572206164647228302960a01b6044820152606490fd5b60405162461bcd60e51b815260206004820152600c60248201526b506f6f6c206164647228302960a01b6044820152606490fd5b346101d75760403660031901126101d757610e7b600435611ca7611d42565b90611cc0610e71825f525f602052600160405f20015490565b612384565b346101d75760203660031901126101d75760206112ae6004355f525f602052600160405f20015490565b346101d75760203660031901126101d7576004359063ffffffff60e01b82168092036101d757602091637965db0b60e01b8114908115611d31575b5015158152f35b6301ffc9a760e01b14905083611d2a565b602435906001600160a01b03821682036101d757565b600435906001600160a01b03821682036101d757565b60809060031901126101d7576004356001600160a01b03811681036101d757906024356001600160a01b03811681036101d757906044356001600160a01b03811681036101d7579060643590565b90600182811c92168015611dea575b6020831014611dd657565b634e487b7160e01b5f52602260045260245ffd5b91607f1691611dcb565b610140810190811067ffffffffffffffff82111761056457604052565b90601f8019910116810190811067ffffffffffffffff82111761056457604052565b9060405191825f825492611e4684611dbc565b8084529360018116908115611eb15750600114611e6d575b50611e6b92500383611e11565b565b90505f9291925260205f20905f915b818310611e95575050906020611e6b928201015f611e5e565b6020919350806001915483858901015201910190918492611e7c565b905060209250611e6b94915060ff191682840152151560051b8201015f611e5e565b805180835260209291819084018484015e5f828201840152601f01601f1916010190565b600554811015611f0f5760055f5260205f2001905f90565b634e487b7160e01b5f52603260045260245ffd5b15611f2a57565b60405162461bcd60e51b815260206004820152600b60248201526a139bdd08105b1b1bddd95960aa1b6044820152606490fd5b15611f6457565b60405162461bcd60e51b815260206004820152600b60248201526a416d6f756e74207a65726f60a81b6044820152606490fd5b15611f9e57565b60405162461bcd60e51b8152602060048201526011602482015270151bdad95b881b9bdd08195b98589b1959607a1b6044820152606490fd5b91908201809211611fe457565b634e487b7160e01b5f52601160045260245ffd5b15611fff57565b60405162461bcd60e51b815260206004820152600b60248201526a04163636f756e74206361760ac1b6044820152606490fd5b1561203957565b60405162461bcd60e51b81526020600482015260096024820152680546f6b656e206361760bc1b6044820152606490fd5b1561207157565b60405162461bcd60e51b815260206004820152600c60248201526b5a65726f206164647265737360a01b6044820152606490fd5b156120ac57565b60405162461bcd60e51b8152602060048201526014602482015273496e73756666696369656e742062616c616e636560601b6044820152606490fd5b91908203918211611fe457565b8051821015611f0f5760209160051b010190565b81810292918115918404141715611fe457565b8115612126570490565b634e487b7160e01b5f52601260045260245ffd5b61ffff16612710039061ffff8211611fe457565b6001600160a01b03165f90815260036020526040908190209051929161217384611df4565b60018060a01b0382541684526101206001830154926020860193845260028101549561ffff6040820197818116895260101c16606082015260038201546080820152600482015460a08201526121f7600660058401549360ff60c085019581811615158752818160081c16151560e087015260101c16151561010085015201611e33565b9283910152511580156122c1575b6122b957602061223c9160018060a01b0360015416604051808095819463524f388960e01b83528660048401526024830190611ed3565b03915afa908115610830575f91612283575b509161155b6122609261ffff94612109565b9251168061226b5750565b612710919261ffff61158f61227f9361213a565b0490565b9290506020833d6020116122b1575b8161229f60209383611e11565b810103126101d757915161155b61224e565b3d9150612292565b505f93505050565b508115612205565b356001600160a01b03811681036101d75790565b3561ffff811681036101d75790565b3580151581036101d75790565b903590601e19813603018212156101d7570180359067ffffffffffffffff82116101d7576020019181360383136101d757565b908060209392818452848401375f828201840152601f01601f1916010190565b5f8181526020818152604080832033845290915290205460ff161561236e5750565b63e2517d3f60e01b5f523360045260245260445ffd5b5f818152602081815260408083206001600160a01b038616845290915290205460ff16612406575f818152602081815260408083206001600160a01b0395909516808452949091528120805460ff19166001179055339291907f2f8788117e7eff1d82e926ec794901d17c78024a50270940304540a733656f0d9080a4600190565b50505f90565b5f818152602081815260408083206001600160a01b038616845290915290205460ff1615612406575f818152602081815260408083206001600160a01b0395909516808452949091528120805460ff19169055339291907ff6391f5c32d9c69d2a47ea670b442974b53935d1edc7fd64eb21e047a839171b9080a4600190565b60405163a9059cbb60e01b60208201526001600160a01b039092166024830152604480830193909352918152611e6b916124c7606483611e11565b905f602091828151910182855af115610830575f513d61251657506001600160a01b0381163b155b6124f65750565b635274afe760e01b5f9081526001600160a01b0391909116600452602490fd5b600114156124ef56fec72d1fd6a9d5bcedebd4aa54df4f803fa3adb4c0519b628bbaec183deaef848aad3228b676f7d3cd4284a5443f17f1962b36e491b30a40b2405849e597ba5fb5a26469706673582212201960ad8e2ad92ff4e95366839afb2f9b3816310a4110d51700292066366b84f164736f6c634300081e0033ad3228b676f7d3cd4284a5443f17f1962b36e491b30a40b2405849e597ba5fb5","linkReferences":{}},"methodIdentifiers":{"DEFAULT_ADMIN_ROLE()":"a217fddf","VAULT_ADMIN_ROLE()":"9e341119","balanceOf(address,address)":"f7888aec","clearinghouse()":"5d4f5f97","collateralConfigs(address)":"8cf18e64","creditFromPool(address,address,address,uint256)":"3216fe0e","deposit(address,uint256,address)":"f45346dc","getAccountCollateralValueX18(address)":"7456d923","getClearinghouse()":"b1cb0f42","getConfig(address)":"e48a5f7b","getOracle()":"833b1fce","getRoleAdmin(bytes32)":"248a9ca3","getTokenValueX18(address,uint256)":"89022dd6","grantRole(bytes32,address)":"2f2ff15d","hasRole(bytes32,address)":"91d14854","isDepositPaused(address)":"602a6364","isEnabled(address)":"9015d371","isWithdrawPaused(address)":"56f02113","oracle()":"7dc0d1d0","registerCollateral((address,uint256,uint16,uint16,uint256,uint256,bool,bool,bool,string))":"f3339c2b","registeredTokens(uint256)":"9a0ba2ea","renounceRole(bytes32,address)":"36568abe","revokeRole(bytes32,address)":"d547741f","seize(address,address,address,uint256)":"acb82dec","setClearinghouse(address)":"37d4b659","setCollateralParams(address,(address,uint256,uint16,uint16,uint256,uint256,bool,bool,bool,string))":"f4aad445","setOracle(address)":"7adbf973","setPause(address,bool,bool)":"421361e9","supportsInterface(bytes4)":"01ffc9a7","sweepFees(address,address,uint256)":"c909985b","totalOf(address)":"912c2673","userBalances(address,address)":"adb51980","withdrawFor(address,address,uint256,address)":"723301f3"},"id":36}