{"abi":[{"type":"constructor","inputs":[{"name":"_quoteToken","type":"address","internalType":"address"},{"name":"_insuranceFund","type":"address","internalType":"address"},{"name":"_treasuryAdmin","type":"address","internalType":"address"},{"name":"_clearinghouse","type":"address","internalType":"address"},{"name":"_tradeToFundBps","type":"uint16","internalType":"uint16"},{"name":"_liqToFundBps","type":"uint16","internalType":"uint16"}],"stateMutability":"nonpayable"},{"type":"function","name":"clearinghouse","inputs":[],"outputs":[{"name":"","type":"address","internalType":"address"}],"stateMutability":"view"},{"type":"function","name":"insuranceFund","inputs":[],"outputs":[{"name":"","type":"address","internalType":"address"}],"stateMutability":"view"},{"type":"function","name":"liqToFundBps","inputs":[],"outputs":[{"name":"","type":"uint16","internalType":"uint16"}],"stateMutability":"view"},{"type":"function","name":"onLiquidationPenalty","inputs":[{"name":"amount","type":"uint256","internalType":"uint256"}],"outputs":[],"stateMutability":"nonpayable"},{"type":"function","name":"onTradeFee","inputs":[{"name":"amount","type":"uint256","internalType":"uint256"}],"outputs":[],"stateMutability":"nonpayable"},{"type":"function","name":"owner","inputs":[],"outputs":[{"name":"","type":"address","internalType":"address"}],"stateMutability":"view"},{"type":"function","name":"quoteToken","inputs":[],"outputs":[{"name":"","type":"address","internalType":"address"}],"stateMutability":"view"},{"type":"function","name":"setClearinghouse","inputs":[{"name":"ch","type":"address","internalType":"address"}],"outputs":[],"stateMutability":"nonpayable"},{"type":"function","name":"setInsuranceFund","inputs":[{"name":"fund","type":"address","internalType":"address"}],"outputs":[],"stateMutability":"nonpayable"},{"type":"function","name":"setSplits","inputs":[{"name":"_tradeToFundBps","type":"uint16","internalType":"uint16"},{"name":"_liqToFundBps","type":"uint16","internalType":"uint16"}],"outputs":[],"stateMutability":"nonpayable"},{"type":"function","name":"setTreasuryAdmin","inputs":[{"name":"_treasuryAdmin","type":"address","internalType":"address"}],"outputs":[],"stateMutability":"nonpayable"},{"type":"function","name":"tradeToFundBps","inputs":[],"outputs":[{"name":"","type":"uint16","internalType":"uint16"}],"stateMutability":"view"},{"type":"function","name":"transferOwnership","inputs":[{"name":"newOwner","type":"address","internalType":"address"}],"outputs":[],"stateMutability":"nonpayable"},{"type":"function","name":"treasuryAdmin","inputs":[],"outputs":[{"name":"","type":"address","internalType":"address"}],"stateMutability":"view"},{"type":"function","name":"withdrawTreasury","inputs":[{"name":"to","type":"address","internalType":"address"},{"name":"amount","type":"uint256","internalType":"uint256"}],"outputs":[],"stateMutability":"nonpayable"},{"type":"event","name":"ClearinghouseSet","inputs":[{"name":"ch","type":"address","indexed":true,"internalType":"address"}],"anonymous":false},{"type":"event","name":"InsuranceFundSet","inputs":[{"name":"fund","type":"address","indexed":true,"internalType":"address"}],"anonymous":false},{"type":"event","name":"OwnerTransferred","inputs":[{"name":"newOwner","type":"address","indexed":true,"internalType":"address"}],"anonymous":false},{"type":"event","name":"SplitsSet","inputs":[{"name":"tradeToFundBps","type":"uint16","indexed":false,"internalType":"uint16"},{"name":"liqToFundBps","type":"uint16","indexed":false,"internalType":"uint16"}],"anonymous":false},{"type":"event","name":"TreasuryAdminSet","inputs":[{"name":"treasuryAdmin","type":"address","indexed":true,"internalType":"address"}],"anonymous":false},{"type":"event","name":"TreasuryWithdrawn","inputs":[{"name":"to","type":"address","indexed":true,"internalType":"address"},{"name":"amount","type":"uint256","indexed":false,"internalType":"uint256"}],"anonymous":false},{"type":"error","name":"SafeERC20FailedOperation","inputs":[{"name":"token","type":"address","internalType":"address"}]}],"bytecode":{"object":"0x60a03461032f57601f610dfa38819003918201601f19168301916001600160401b038311848410176103335780849260c09460405283398101031261032f5761004781610347565b9061005460208201610347565b9161006160408301610347565b9061006e60608401610347565b9361008760a06100806080870161035b565b950161035b565b906001600160a01b038316156102fc576001600160a01b03169283156102ca576001600160a01b0316948515610285576001600160a01b031680156102555761ffff85169061271082111580610245575b15610212575f80546001600160a01b031990811633178255608095909552600280548616871790556003805460018054909716841790965560a09790971b61ffff60a01b166001600160c01b031990951688179490941760b084901b61ffff60b01b1617909555604080517f98f56af1338abf78f28b2e6b0b4dd80b92de423d9578cea4e4a57ba7843e0eca979196909561ffff959192917f5f5e1360fb9bbf3f1dd392d5153831cc6fa952aad577bbbb06e51fea4174cd089080a27f29a0fa5a601b55be99745946b0d41e8ac62be8e0832dea53856c17a01d9e66545f80a27f0ff2c850d6c5bbe4a9190d1ac70e84a2d44e11374b401e9f27c1c56a93dc51015f80a28352166020820152a1604051610a8f908161036b82396080518181816104690152818161055a0152818161069601526107f40152f35b60405162461bcd60e51b815260206004820152600b60248201526a11948e88189c1ccf8c594d60aa1b6044820152606490fd5b5061271061ffff841611156100d8565b60405162461bcd60e51b8152602060048201526008602482015267046523a2043483d360c41b6044820152606490fd5b60405162461bcd60e51b815260206004820152601460248201527f46523a2074726561737572792061646d696e3d300000000000000000000000006044820152606490fd5b60405162461bcd60e51b815260206004820152600a602482015269046523a2066756e643d360b41b6044820152606490fd5b60405162461bcd60e51b815260206004820152600b60248201526a046523a20746f6b656e3d360ac1b6044820152606490fd5b5f80fd5b634e487b7160e01b5f52604160045260245ffd5b51906001600160a01b038216820361032f57565b519061ffff8216820361032f5756fe6080806040526004361015610012575f80fd5b5f905f3560e01c9081630d86419a14610775575080630f66ef02146106c5578063217a4b701461068157806337d4b659146105dd5780633e36a517146104ee5780634a9cff8c146103fd5780635d4f5f97146103d45780637ccb9faa146103af5780638da5cb5b14610388578063b79023031461035f578063c3c05293146102b7578063c3cfe20614610292578063cfec010c14610269578063eeaf1a061461016e5763f2fde38b146100c3575f80fd5b3461016b57602036600319011261016b576100dc6108a8565b8154906100f3336001600160a01b038416146108f9565b6001600160a01b0316908115610138576001600160a01b031916811782557f59f8e335c08d1479ecf855b99b0c772a9cba03a8abdff4d9b52a76f655072df68280a280f35b60405162461bcd60e51b815260206004820152600b60248201526a046523a206f776e65723d360ac1b6044820152606490fd5b80fd5b503461016b57604036600319011261016b5760043561ffff8116808203610265576024359061ffff8216808303610261576101b360018060a01b0386541633146108f9565b61271082111580610255575b15610222577f98f56af1338abf78f28b2e6b0b4dd80b92de423d9578cea4e4a57ba7843e0eca936040936003549061ffff60b01b9060b01b169161ffff60a01b9060a01b169063ffffffff60a01b1916171760035582519182526020820152a180f35b60405162461bcd60e51b815260206004820152600b60248201526a11948e88189c1ccf8c594d60aa1b6044820152606490fd5b506127108111156101bf565b8480fd5b8280fd5b503461016b578060031936011261016b576003546040516001600160a01b039091168152602090f35b503461016b578060031936011261016b57602061ffff60035460b01c16604051908152f35b503461016b57602036600319011261016b576102d16108a8565b6102e560018060a01b0383541633146108f9565b6001600160a01b0316801561032d57600280546001600160a01b031916821790557f5f5e1360fb9bbf3f1dd392d5153831cc6fa952aad577bbbb06e51fea4174cd088280a280f35b60405162461bcd60e51b815260206004820152600a602482015269046523a2066756e643d360b41b6044820152606490fd5b503461016b578060031936011261016b576002546040516001600160a01b039091168152602090f35b503461016b578060031936011261016b57546040516001600160a01b039091168152602090f35b503461016b578060031936011261016b57602061ffff60035460a01c16604051908152f35b503461016b578060031936011261016b576001546040516001600160a01b039091168152602090f35b503461016b57602036600319011261016b578061271061044960043561042e60018060a01b03600154163314610935565b6104398115156108be565b61ffff60035460b01c169061096e565b04806104525750f35b60025461048e9082906001600160a01b03908116907f0000000000000000000000000000000000000000000000000000000000000000166109cb565b6002546001600160a01b031690813b156104ea5782916024839260405194859384926339f3cb0b60e11b845260048401525af180156104df576104ce5750f35b816104d891610995565b61016b5780f35b6040513d84823e3d90fd5b5050fd5b50346105d95760203660031901126105d95761271061053960043561051e60018060a01b03600154163314610935565b6105298115156108be565b61ffff60035460a01c169061096e565b0480610543575080f35b60025461057f9082906001600160a01b03908116907f0000000000000000000000000000000000000000000000000000000000000000166109cb565b6002546001600160a01b031690813b156105d9575f916024839260405194859384926339f3cb0b60e11b845260048401525af180156105ce576105c0575080f35b6105cc91505f90610995565b005b6040513d5f823e3d90fd5b5f80fd5b346105d95760203660031901126105d9576105f66108a8565b61060a60018060a01b035f541633146108f9565b6001600160a01b0316801561065157600180546001600160a01b031916821790557f0ff2c850d6c5bbe4a9190d1ac70e84a2d44e11374b401e9f27c1c56a93dc51015f80a2005b60405162461bcd60e51b8152602060048201526008602482015267046523a2043483d360c41b6044820152606490fd5b346105d9575f3660031901126105d9576040517f00000000000000000000000000000000000000000000000000000000000000006001600160a01b03168152602090f35b346105d95760203660031901126105d9576106de6108a8565b6106f260018060a01b035f541633146108f9565b6001600160a01b0316801561073957600380546001600160a01b031916821790557f29a0fa5a601b55be99745946b0d41e8ac62be8e0832dea53856c17a01d9e66545f80a2005b60405162461bcd60e51b8152602060048201526014602482015273046523a2074726561737572792061646d696e3d360641b6044820152606490fd5b346105d95760403660031901126105d95761078e6108a8565b906024359060018060a01b036003541633148015610895575b1561085a57506001600160a01b03821691821561082a5781610821816020936107f27f41fdd680478135993bc53fb2ffaf9560951b57ef62ff6badd02b61e018b4f17f9615156108be565b7f00000000000000000000000000000000000000000000000000000000000000006001600160a01b03166109cb565b604051908152a2005b60405162461bcd60e51b8152602060048201526008602482015267046523a20746f3d360c41b6044820152606490fd5b62461bcd60e51b815260206004820152601660248201527523291d103737ba103a3932b0b9bab93c9030b236b4b760511b6044820152606490fd5b505f546001600160a01b031633146107a7565b600435906001600160a01b03821682036105d957565b156108c557565b60405162461bcd60e51b815260206004820152600c60248201526b046523a20616d6f756e743d360a41b6044820152606490fd5b1561090057565b60405162461bcd60e51b815260206004820152600d60248201526c23291d103737ba1037bbb732b960991b6044820152606490fd5b1561093c57565b60405162461bcd60e51b815260206004820152600a60248201526908ca47440dcdee84086960b31b6044820152606490fd5b8181029291811591840414171561098157565b634e487b7160e01b5f52601160045260245ffd5b90601f8019910116810190811067ffffffffffffffff8211176109b757604052565b634e487b7160e01b5f52604160045260245ffd5b60405163a9059cbb60e01b60208281019182526001600160a01b03909416602483015260448083019590955293815290925f91610a09606482610995565b519082855af1156105ce575f513d610a5057506001600160a01b0381163b155b610a305750565b635274afe760e01b5f9081526001600160a01b0391909116600452602490fd5b60011415610a2956fea264697066735822122069f914bafb17610cb2286ea3d3509681bab0e96b0e54810a3c174f8e44ee75be64736f6c634300081e0033","linkReferences":{}},"methodIdentifiers":{"clearinghouse()":"5d4f5f97","insuranceFund()":"b7902303","liqToFundBps()":"c3cfe206","onLiquidationPenalty(uint256)":"4a9cff8c","onTradeFee(uint256)":"3e36a517","owner()":"8da5cb5b","quoteToken()":"217a4b70","setClearinghouse(address)":"37d4b659","setInsuranceFund(address)":"c3c05293","setSplits(uint16,uint16)":"eeaf1a06","setTreasuryAdmin(address)":"0f66ef02","tradeToFundBps()":"7ccb9faa","transferOwnership(address)":"f2fde38b","treasuryAdmin()":"cfec010c","withdrawTreasury(address,uint256)":"0d86419a"},"id":37}