{"abi":[{"type":"constructor","inputs":[{"name":"quoteToken_","type":"address","internalType":"address"},{"name":"clearinghouse_","type":"address","internalType":"address"}],"stateMutability":"nonpayable"},{"type":"function","name":"balance","inputs":[],"outputs":[{"name":"","type":"uint256","internalType":"uint256"}],"stateMutability":"view"},{"type":"function","name":"clearinghouse","inputs":[],"outputs":[{"name":"","type":"address","internalType":"address"}],"stateMutability":"view"},{"type":"function","name":"donate","inputs":[{"name":"amount","type":"uint256","internalType":"uint256"}],"outputs":[],"stateMutability":"nonpayable"},{"type":"function","name":"isAuthorized","inputs":[{"name":"caller","type":"address","internalType":"address"}],"outputs":[{"name":"","type":"bool","internalType":"bool"}],"stateMutability":"view"},{"type":"function","name":"isRouter","inputs":[{"name":"router_","type":"address","internalType":"address"}],"outputs":[{"name":"","type":"bool","internalType":"bool"}],"stateMutability":"view"},{"type":"function","name":"onFeeReceived","inputs":[{"name":"amount","type":"uint256","internalType":"uint256"}],"outputs":[],"stateMutability":"nonpayable"},{"type":"function","name":"owner","inputs":[],"outputs":[{"name":"","type":"address","internalType":"address"}],"stateMutability":"view"},{"type":"function","name":"payout","inputs":[{"name":"to","type":"address","internalType":"address"},{"name":"amount","type":"uint256","internalType":"uint256"}],"outputs":[],"stateMutability":"nonpayable"},{"type":"function","name":"quoteToken","inputs":[],"outputs":[{"name":"","type":"address","internalType":"address"}],"stateMutability":"view"},{"type":"function","name":"rescueToken","inputs":[{"name":"token","type":"address","internalType":"address"},{"name":"to","type":"address","internalType":"address"},{"name":"amount","type":"uint256","internalType":"uint256"}],"outputs":[],"stateMutability":"nonpayable"},{"type":"function","name":"setAuthorized","inputs":[{"name":"caller","type":"address","internalType":"address"},{"name":"allowed","type":"bool","internalType":"bool"}],"outputs":[],"stateMutability":"nonpayable"},{"type":"function","name":"setClearinghouse","inputs":[{"name":"newClearinghouse","type":"address","internalType":"address"}],"outputs":[],"stateMutability":"nonpayable"},{"type":"function","name":"setFeeRouter","inputs":[{"name":"router_","type":"address","internalType":"address"},{"name":"allowed","type":"bool","internalType":"bool"}],"outputs":[],"stateMutability":"nonpayable"},{"type":"function","name":"totalPaid","inputs":[],"outputs":[{"name":"","type":"uint256","internalType":"uint256"}],"stateMutability":"view"},{"type":"function","name":"totalReceived","inputs":[],"outputs":[{"name":"","type":"uint256","internalType":"uint256"}],"stateMutability":"view"},{"type":"event","name":"AuthorizedUpdated","inputs":[{"name":"caller","type":"address","indexed":true,"internalType":"address"},{"name":"allowed","type":"bool","indexed":false,"internalType":"bool"}],"anonymous":false},{"type":"event","name":"ClearinghouseUpdated","inputs":[{"name":"clearinghouse","type":"address","indexed":true,"internalType":"address"}],"anonymous":false},{"type":"event","name":"Donated","inputs":[{"name":"from","type":"address","indexed":true,"internalType":"address"},{"name":"amount","type":"uint256","indexed":false,"internalType":"uint256"}],"anonymous":false},{"type":"event","name":"FeeReceived","inputs":[{"name":"from","type":"address","indexed":true,"internalType":"address"},{"name":"amount","type":"uint256","indexed":false,"internalType":"uint256"}],"anonymous":false},{"type":"event","name":"Payout","inputs":[{"name":"to","type":"address","indexed":true,"internalType":"address"},{"name":"amount","type":"uint256","indexed":false,"internalType":"uint256"}],"anonymous":false},{"type":"event","name":"RouterUpdated","inputs":[{"name":"router","type":"address","indexed":true,"internalType":"address"},{"name":"allowed","type":"bool","indexed":false,"internalType":"bool"}],"anonymous":false},{"type":"event","name":"TokenRescued","inputs":[{"name":"token","type":"address","indexed":true,"internalType":"address"},{"name":"to","type":"address","indexed":true,"internalType":"address"},{"name":"amount","type":"uint256","indexed":false,"internalType":"uint256"}],"anonymous":false},{"type":"error","name":"SafeERC20FailedOperation","inputs":[{"name":"token","type":"address","internalType":"address"}]}],"bytecode":{"object":"0x60803461015257601f610b4938819003918201601f19168301916001600160401b0383118484101761015657808492604094855283398101031261015257610052602061004b8361016a565b920161016a565b906001600160a01b0316801561011f575f80546001600160a01b03199081163317909155600280549091169190911790556001600160a01b0316806100a1575b6040516109ca908161017f8239f35b8060018060a01b03196001541617600155805f52600460205260405f20600160ff198254161790557f4baf71ac1b8b1858d7ab3d2f65eceedce776ac368d0e05e8f9e9f0bf7ea64e4f6020604051837fb4f720a32b9c4d67acb137d9a0a385b3ff8bed90d7a2c46bc285a3d83f1bb3f55f80a260018152a25f610092565b60405162461bcd60e51b815260206004820152600b60248201526a049463a2071756f74653d360ac1b6044820152606490fd5b5f80fd5b634e487b7160e01b5f52604160045260245ffd5b51906001600160a01b03821682036101525756fe6080806040526004361015610012575f80fd5b5f3560e01c908163117de2fd146106dc57508063217a4b70146106b457806337d4b659146105655780635cfcff6a146104ba5780635d4f5f9714610492578063711bf9b21461041a57806373e79616146103735780638da5cb5b1461034c578063a3c2c4621461032f578063b69ef8a81461029d578063e5711e8b146101b8578063e7b0f6661461019b578063f14faf6f1461013f578063f3d7d282146101025763fe9fbb80146100c1575f80fd5b346100fe5760203660031901126100fe576001600160a01b036100e26107bc565b165f526004602052602060ff60405f2054166040519015158152f35b5f80fd5b346100fe5760203660031901126100fe576001600160a01b036101236107bc565b165f526003602052602060ff60405f2054166040519015158152f35b346100fe5760203660031901126100fe5760043561015e811515610838565b61016a81600554610873565b6005556040519081527f2a01595cddf097c90216094025db714da3f4e5bd8877b56ba86a24ecead8e54360203392a2005b346100fe575f3660031901126100fe576020600654604051908152f35b346100fe5760603660031901126100fe576101d16107bc565b6024356001600160a01b03811691908281036100fe57604435906101ff60018060a01b035f54163314610894565b6002546001600160a01b0393841693168314610258578161024f7f4143f7b5cb6ea007914c32b8a3e64cebc051d7f493fa0755454da1e47701e12593602093610249881515610801565b86610906565b604051908152a3005b60405162461bcd60e51b815260206004820152601760248201527f49463a2063616e6e6f74207265736375652071756f74650000000000000000006044820152606490fd5b346100fe575f3660031901126100fe576002546040516370a0823160e01b815230600482015290602090829060249082906001600160a01b03165afa8015610324575f906102f1575b602090604051908152f35b506020813d60201161031c575b8161030b602093836108d0565b810103126100fe57602090516102e6565b3d91506102fe565b6040513d5f823e3d90fd5b346100fe575f3660031901126100fe576020600554604051908152f35b346100fe575f3660031901126100fe575f546040516001600160a01b039091168152602090f35b346100fe5760203660031901126100fe57600435335f52600360205260ff60405f205416156103e4576103a7811515610838565b6103b381600554610873565b6005556040519081527fbb527541f6cc244ae00ab689f8c23d072a30a3b4176021df62ea1c2bac8aa22660203392a2005b60405162461bcd60e51b815260206004820152600e60248201526d24a31d103737ba103937baba32b960911b6044820152606490fd5b346100fe5760207f4baf71ac1b8b1858d7ab3d2f65eceedce776ac368d0e05e8f9e9f0bf7ea64e4f61044b366107d2565b929061046160018060a01b035f54163314610894565b6001600160a01b03165f8181526004835260409020805460ff191660ff86151516179055925b6040519015158152a2005b346100fe575f3660031901126100fe576001546040516001600160a01b039091168152602090f35b346100fe576104c8366107d2565b906104dd60018060a01b035f54163314610894565b6001600160a01b03169081156105315760207fab5814e9f0dc78998a367cdeb77f1143370431cce307f90adb6db02f49fd768a91835f52600382526104878160405f209060ff801983541691151516179055565b60405162461bcd60e51b815260206004820152600c60248201526b049463a20726f757465723d360a41b6044820152606490fd5b346100fe5760203660031901126100fe5761057e6107bc565b61059260018060a01b035f54163314610894565b6001600160a01b03168015610684576001546001600160a01b031680610636575b50806bffffffffffffffffffffffff60a01b6001541617600155805f52600460205260405f20600160ff198254161790557f4baf71ac1b8b1858d7ab3d2f65eceedce776ac368d0e05e8f9e9f0bf7ea64e4f6020604051837fb4f720a32b9c4d67acb137d9a0a385b3ff8bed90d7a2c46bc285a3d83f1bb3f55f80a260018152a2005b5f52600460205260405f2060ff19815416905560018060a01b03600154167f4baf71ac1b8b1858d7ab3d2f65eceedce776ac368d0e05e8f9e9f0bf7ea64e4f60206040515f8152a2816105b3565b60405162461bcd60e51b8152602060048201526008602482015267049463a2063683d360c41b6044820152606490fd5b346100fe575f3660031901126100fe576002546040516001600160a01b039091168152602090f35b346100fe5760403660031901126100fe576106f56107bc565b9060243590335f52600460205260ff60405f2054161561078557506001600160a01b038216917f5afeca38b2064c23a692c4cf353015d80ab3ecc417b4f893f372690c11fbd9a69160209161076d908290610751871515610801565b61075c821515610838565b6002546001600160a01b0316610906565b61077981600654610873565b600655604051908152a2005b62461bcd60e51b815260206004820152601260248201527112518e881b9bdd08185d5d1a1bdc9a5e995960721b6044820152606490fd5b600435906001600160a01b03821682036100fe57565b60409060031901126100fe576004356001600160a01b03811681036100fe579060243580151581036100fe5790565b1561080857565b60405162461bcd60e51b8152602060048201526008602482015267049463a20746f3d360c41b6044820152606490fd5b1561083f57565b60405162461bcd60e51b815260206004820152600c60248201526b049463a20616d6f756e743d360a41b6044820152606490fd5b9190820180921161088057565b634e487b7160e01b5f52601160045260245ffd5b1561089b57565b60405162461bcd60e51b815260206004820152600d60248201526c24a31d103737ba1037bbb732b960991b6044820152606490fd5b90601f8019910116810190811067ffffffffffffffff8211176108f257604052565b634e487b7160e01b5f52604160045260245ffd5b60405163a9059cbb60e01b60208281019182526001600160a01b03909416602483015260448083019590955293815290925f916109446064826108d0565b519082855af115610324575f513d61098b57506001600160a01b0381163b155b61096b5750565b635274afe760e01b5f9081526001600160a01b0391909116600452602490fd5b6001141561096456fea26469706673582212205f7202a2622df44e40354a51c71c05b53097daf69aa3e1db11e6f6f85c6c128e64736f6c634300081e0033","linkReferences":{}},"methodIdentifiers":{"balance()":"b69ef8a8","clearinghouse()":"5d4f5f97","donate(uint256)":"f14faf6f","isAuthorized(address)":"fe9fbb80","isRouter(address)":"f3d7d282","onFeeReceived(uint256)":"73e79616","owner()":"8da5cb5b","payout(address,uint256)":"117de2fd","quoteToken()":"217a4b70","rescueToken(address,address,uint256)":"e5711e8b","setAuthorized(address,bool)":"711bf9b2","setClearinghouse(address)":"37d4b659","setFeeRouter(address,bool)":"5cfcff6a","totalPaid()":"e7b0f666","totalReceived()":"a3c2c462"},"id":38}