{"abi":[{"type":"constructor","inputs":[],"stateMutability":"nonpayable"},{"type":"function","name":"DEFAULT_ADMIN_ROLE","inputs":[],"outputs":[{"name":"","type":"bytes32","internalType":"bytes32"}],"stateMutability":"view"},{"type":"function","name":"MARKET_ADMIN_ROLE","inputs":[],"outputs":[{"name":"","type":"bytes32","internalType":"bytes32"}],"stateMutability":"view"},{"type":"function","name":"MAX_FEE_BPS","inputs":[],"outputs":[{"name":"","type":"uint16","internalType":"uint16"}],"stateMutability":"view"},{"type":"function","name":"PARAM_ADMIN_ROLE","inputs":[],"outputs":[{"name":"","type":"bytes32","internalType":"bytes32"}],"stateMutability":"view"},{"type":"function","name":"PAUSE_GUARDIAN_ROLE","inputs":[],"outputs":[{"name":"","type":"bytes32","internalType":"bytes32"}],"stateMutability":"view"},{"type":"function","name":"addMarket","inputs":[{"name":"config","type":"tuple","internalType":"struct IMarketRegistry.AddMarketConfig","components":[{"name":"marketId","type":"bytes32","internalType":"bytes32"},{"name":"vamm","type":"address","internalType":"address"},{"name":"oracle","type":"address","internalType":"address"},{"name":"baseAsset","type":"address","internalType":"address"},{"name":"quoteToken","type":"address","internalType":"address"},{"name":"baseUnit","type":"uint256","internalType":"uint256"},{"name":"feeBps","type":"uint16","internalType":"uint16"},{"name":"feeRouter","type":"address","internalType":"address"},{"name":"insuranceFund","type":"address","internalType":"address"}]}],"outputs":[],"stateMutability":"nonpayable"},{"type":"function","name":"exists","inputs":[{"name":"marketId","type":"bytes32","internalType":"bytes32"}],"outputs":[{"name":"","type":"bool","internalType":"bool"}],"stateMutability":"view"},{"type":"function","name":"getMarket","inputs":[{"name":"marketId","type":"bytes32","internalType":"bytes32"}],"outputs":[{"name":"","type":"tuple","internalType":"struct IMarketRegistry.Market","components":[{"name":"vamm","type":"address","internalType":"address"},{"name":"feeBps","type":"uint16","internalType":"uint16"},{"name":"paused","type":"bool","internalType":"bool"},{"name":"oracle","type":"address","internalType":"address"},{"name":"feeRouter","type":"address","internalType":"address"},{"name":"insuranceFund","type":"address","internalType":"address"},{"name":"baseAsset","type":"address","internalType":"address"},{"name":"quoteToken","type":"address","internalType":"address"},{"name":"baseUnit","type":"uint256","internalType":"uint256"}]}],"stateMutability":"view"},{"type":"function","name":"getRoleAdmin","inputs":[{"name":"role","type":"bytes32","internalType":"bytes32"}],"outputs":[{"name":"","type":"bytes32","internalType":"bytes32"}],"stateMutability":"view"},{"type":"function","name":"grantRole","inputs":[{"name":"role","type":"bytes32","internalType":"bytes32"},{"name":"account","type":"address","internalType":"address"}],"outputs":[],"stateMutability":"nonpayable"},{"type":"function","name":"hasRole","inputs":[{"name":"role","type":"bytes32","internalType":"bytes32"},{"name":"account","type":"address","internalType":"address"}],"outputs":[{"name":"","type":"bool","internalType":"bool"}],"stateMutability":"view"},{"type":"function","name":"isActive","inputs":[{"name":"marketId","type":"bytes32","internalType":"bytes32"}],"outputs":[{"name":"","type":"bool","internalType":"bool"}],"stateMutability":"view"},{"type":"function","name":"isPaused","inputs":[{"name":"marketId","type":"bytes32","internalType":"bytes32"}],"outputs":[{"name":"","type":"bool","internalType":"bool"}],"stateMutability":"view"},{"type":"function","name":"markets","inputs":[{"name":"MarketId","type":"bytes32","internalType":"bytes32"}],"outputs":[{"name":"vamm","type":"address","internalType":"address"},{"name":"feeBps","type":"uint16","internalType":"uint16"},{"name":"paused","type":"bool","internalType":"bool"},{"name":"oracle","type":"address","internalType":"address"},{"name":"feeRouter","type":"address","internalType":"address"},{"name":"insuranceFund","type":"address","internalType":"address"},{"name":"baseAsset","type":"address","internalType":"address"},{"name":"quoteToken","type":"address","internalType":"address"},{"name":"baseUnit","type":"uint256","internalType":"uint256"}],"stateMutability":"view"},{"type":"function","name":"pauseMarket","inputs":[{"name":"marketId","type":"bytes32","internalType":"bytes32"},{"name":"paused","type":"bool","internalType":"bool"}],"outputs":[],"stateMutability":"nonpayable"},{"type":"function","name":"renounceRole","inputs":[{"name":"role","type":"bytes32","internalType":"bytes32"},{"name":"callerConfirmation","type":"address","internalType":"address"}],"outputs":[],"stateMutability":"nonpayable"},{"type":"function","name":"revokeRole","inputs":[{"name":"role","type":"bytes32","internalType":"bytes32"},{"name":"account","type":"address","internalType":"address"}],"outputs":[],"stateMutability":"nonpayable"},{"type":"function","name":"setMarketParams","inputs":[{"name":"marketId","type":"bytes32","internalType":"bytes32"},{"name":"feeBps","type":"uint16","internalType":"uint16"},{"name":"feeRouter","type":"address","internalType":"address"},{"name":"insuranceFund","type":"address","internalType":"address"}],"outputs":[],"stateMutability":"nonpayable"},{"type":"function","name":"supportsInterface","inputs":[{"name":"interfaceId","type":"bytes4","internalType":"bytes4"}],"outputs":[{"name":"","type":"bool","internalType":"bool"}],"stateMutability":"view"},{"type":"event","name":"MarketAdded","inputs":[{"name":"marketId","type":"bytes32","indexed":true,"internalType":"bytes32"},{"name":"vamm","type":"address","indexed":true,"internalType":"address"}],"anonymous":false},{"type":"event","name":"MarketParamsUpdated","inputs":[{"name":"marketId","type":"bytes32","indexed":true,"internalType":"bytes32"},{"name":"feeBps","type":"uint16","indexed":false,"internalType":"uint16"},{"name":"feeRouter","type":"address","indexed":false,"internalType":"address"},{"name":"insuranceFund","type":"address","indexed":false,"internalType":"address"}],"anonymous":false},{"type":"event","name":"MarketPaused","inputs":[{"name":"marketId","type":"bytes32","indexed":true,"internalType":"bytes32"},{"name":"paused","type":"bool","indexed":false,"internalType":"bool"}],"anonymous":false},{"type":"event","name":"RoleAdminChanged","inputs":[{"name":"role","type":"bytes32","indexed":true,"internalType":"bytes32"},{"name":"previousAdminRole","type":"bytes32","indexed":true,"internalType":"bytes32"},{"name":"newAdminRole","type":"bytes32","indexed":true,"internalType":"bytes32"}],"anonymous":false},{"type":"event","name":"RoleGranted","inputs":[{"name":"role","type":"bytes32","indexed":true,"internalType":"bytes32"},{"name":"account","type":"address","indexed":true,"internalType":"address"},{"name":"sender","type":"address","indexed":true,"internalType":"address"}],"anonymous":false},{"type":"event","name":"RoleRevoked","inputs":[{"name":"role","type":"bytes32","indexed":true,"internalType":"bytes32"},{"name":"account","type":"address","indexed":true,"internalType":"address"},{"name":"sender","type":"address","indexed":true,"internalType":"address"}],"anonymous":false},{"type":"error","name":"AccessControlBadConfirmation","inputs":[]},{"type":"error","name":"AccessControlUnauthorizedAccount","inputs":[{"name":"account","type":"address","internalType":"address"},{"name":"neededRole","type":"bytes32","internalType":"bytes32"}]}],"bytecode":{"object":"0x608060405234601f57600f336023565b5060405161124e90816100ac8239f35b5f80fd5b6001600160a01b0381165f9081525f5160206112fa5f395f51905f52602052604090205460ff1660a6576001600160a01b03165f8181525f5160206112fa5f395f51905f5260205260408120805460ff191660011790553391907f2f8788117e7eff1d82e926ec794901d17c78024a50270940304540a733656f0d8180a4600190565b505f9056fe6080806040526004361015610012575f80fd5b5f3560e01c90816301ffc9a714610dff5750806313fa529214610bf3578063241b71bb14610bc1578063248a9ca314610b8f5780632f2ff15d14610b5257806336568abe14610b0e57806338a699a414610ada5780634509e6ae14610aa05780635c36901c14610a785780637564912b146109c057806391d1485414610978578063a217fddf1461095e578063b7eaeaa0146104c5578063c3c95c7b14610352578063d32c78c0146101c5578063d547741f14610181578063d55be8c614610165578063d6f0d39f1461012b5763f5e2b30e146100ed575f80fd5b34610127575f3660031901126101275760206040517f8ba45f340316dd72e9cc26667babfd6acf968018782e32378f6cfec521e8a0558152f35b5f80fd5b34610127575f3660031901126101275760206040517f3fb0aaa9e8051cfc6c234a5d843bed33910f70c647055f27247c10144c7552e18152f35b34610127575f36600319011261012757602060405161012c8152f35b34610127576040366003190112610127576101c36004356101a0610e52565b906101be6101b9825f525f602052600160405f20015490565b6110c7565b611187565b005b346101275760803660031901126101275760043560243561ffff811690818103610127576044356001600160a01b0381169290839003610127576064356001600160a01b0381169081900361012757335f9081527f4239ffbb02cf637a4d9da0b8558f06dedd08e74009b9fc3ab789eb9a8a76023d602052604090205460ff161561031b577ffb2e0370364b8475b653deedf6a7d9c4e0bde7092fea354e8ea524f4147effdf936003606094875f5260016020526102d560405f209161029560018060a01b038454161515610e68565b6102a361012c881115611013565b6102ae85151561104e565b6102b986151561108e565b825461ffff60a01b191660a09190911b61ffff60a01b16178255565b60028101836bffffffffffffffffffffffff60a01b82541617905501826bffffffffffffffffffffffff60a01b82541617905560405192835260208301526040820152a2005b63e2517d3f60e01b5f52336004527f8ba45f340316dd72e9cc26667babfd6acf968018782e32378f6cfec521e8a05560245260445ffd5b34610127576020366003190112610127575f61010061036f610ea5565b8281528260208201528260408201528260608201528260808201528260a08201528260c08201528260e082015201526004355f52600160205261012060405f206103b7610ea5565b81549160018060a01b03831692838352602083019061ffff8160a01c16825260ff604085019160b01c161515815260018060a01b036001840154166060850190815260018060a01b03600285015416906080860191825260018060a01b036003860154169260a0870193845261ffff60018060a01b036004880154169560c08901968752610100600660018060a01b0360058b0154169960e08c019a8b5201549901988952604051998a5251166020890152511515604088015260018060a01b03905116606087015260018060a01b03905116608086015260018060a01b0390511660a085015260018060a01b0390511660c084015260018060a01b0390511660e083015251610100820152f35b346101275761012036600319011261012757335f9081527f8522cc959b5f1324f2d3217a190156abffac5c53b78a18e2178efd09ba8b42b2602052604090205460ff168015610927575b156108ef57600435805f52600160205260405f2081156108ba5780546001600160a01b0316610885576001600160a01b03610548610f8e565b1615610851576001600160a01b0361055e610fa4565b161561081b576001600160a01b03610574610fba565b16156107e7576001600160a01b0361058a610fd0565b16156107b257610598610fba565b6001600160a01b036105a8610fd0565b6001600160a01b039092169116146107805760a43590811561074d576006906105e26001600160a01b036105da610fe6565b16151561104e565b6105fd6001600160a01b036105f5610ffc565b16151561108e565b61061661012c61ffff61060e611207565b161115611013565b6001600160a01b03610626610f8e565b82546001600160a01b03191691161781556106426102b9611207565b805460ff60b01b19168155610655610fa4565b6001820180546001600160a01b0319166001600160a01b0390921691909117905561067e610fe6565b6002820180546001600160a01b0319166001600160a01b039092169190911790556106a7610ffc565b6003820180546001600160a01b0319166001600160a01b039092169190911790556106d0610fba565b6004820180546001600160a01b0319166001600160a01b039092169190911790556106f9610fd0565b6005820180546001600160a01b0319166001600160a01b03928316179055910191909155610725610f8e565b16907f3ca3906a1acc14aee692a58b74ea4d433d5b33625fc29e6f1cfbac4df9ee7f1e5f80a3005b60405162461bcd60e51b815260206004820152600b60248201526a04261736520756e697420360ac1b6044820152606490fd5b60405162461bcd60e51b815260206004820152600a602482015269426173653d51756f746560b01b6044820152606490fd5b60405162461bcd60e51b815260206004820152600d60248201526c51756f7465206164647228302960981b6044820152606490fd5b60405162461bcd60e51b815260206004820152600c60248201526b42617365206164647228302960a01b6044820152606490fd5b60405162461bcd60e51b815260206004820152600e60248201526d4f7261636c65206164647228302960901b6044820152606490fd5b60405162461bcd60e51b815260206004820152600c60248201526b76414d4d206164647228302960a01b6044820152606490fd5b60405162461bcd60e51b815260206004820152600d60248201526c4d61726b65742045786973747360981b6044820152606490fd5b60405162461bcd60e51b815260206004820152600d60248201526c16995c9bc81b585c9ad95d1259609a1b6044820152606490fd5b60405162461bcd60e51b815260206004820152601060248201526f2737ba1036b0b935b2ba1030b236b4b760811b6044820152606490fd5b50335f9081527fad3228b676f7d3cd4284a5443f17f1962b36e491b30a40b2405849e597ba5fb5602052604090205460ff1661050f565b34610127575f3660031901126101275760206040515f8152f35b3461012757604036600319011261012757610991610e52565b6004355f525f60205260405f209060018060a01b03165f52602052602060ff60405f2054166040519015158152f35b34610127576020366003190112610127576004355f52600160205261012060405f2080549060018060a01b036001820154169060018060a01b0360028201541660018060a01b0360038301541660018060a01b0360048401541691600660018060a01b036005860154169401549460ff6040519760018060a01b038116895261ffff8160a01c1660208a015260b01c16151560408801526060870152608086015260a085015260c084015260e0830152610100820152f35b34610127576020366003190112610127576020610a96600435610eda565b6040519015158152f35b34610127575f3660031901126101275760206040517f3bb181d5689164b4d72d34b056228c95b51f3fb0f6dbdb7f9ddba5f91c6821dd8152f35b34610127576020366003190112610127576004355f526001602052602060018060a01b0360405f2054161515604051908152f35b3461012757604036600319011261012757610b27610e52565b336001600160a01b03821603610b43576101c390600435611187565b63334bd91960e11b5f5260045ffd5b34610127576040366003190112610127576101c3600435610b71610e52565b90610b8a6101b9825f525f602052600160405f20015490565b6110ff565b34610127576020366003190112610127576020610bb96004355f525f602052600160405f20015490565b604051908152f35b34610127576020366003190112610127576004355f526001602052602060ff60405f205460b01c166040519015158152f35b34610127576040366003190112610127576004356024358015159081810361012757825f52600160205260405f2090610c3660018060a01b038354161515610e68565b15610d2a57335f9081527f3b23a5a73acc44def015037f8343181586789dc120ddac7be3272defad8706aa602052604090205460ff168015610cf3575b15610cbe577f05520bfd4bb1667474a37714b39c417a849997967943d706d4139a6308b7d933916020915b805460ff60b01b191660b083901b60ff60b01b16179055604051908152a2005b60405162461bcd60e51b815260206004820152600d60248201526c4e6f20706175736520726f6c6560981b6044820152606490fd5b50335f9081527fad3228b676f7d3cd4284a5443f17f1962b36e491b30a40b2405849e597ba5fb5602052604090205460ff16610c73565b335f9081527f8522cc959b5f1324f2d3217a190156abffac5c53b78a18e2178efd09ba8b42b2602052604090205460ff168015610dc8575b15610d91577f05520bfd4bb1667474a37714b39c417a849997967943d706d4139a6308b7d93391602091610c9e565b60405162461bcd60e51b815260206004820152600f60248201526e4e6f20756e706175736520726f6c6560881b6044820152606490fd5b50335f9081527fad3228b676f7d3cd4284a5443f17f1962b36e491b30a40b2405849e597ba5fb5602052604090205460ff16610d62565b34610127576020366003190112610127576004359063ffffffff60e01b821680920361012757602091637965db0b60e01b8114908115610e41575b5015158152f35b6301ffc9a760e01b14905083610e3a565b602435906001600160a01b038216820361012757565b15610e6f57565b60405162461bcd60e51b815260206004820152600e60248201526d139bc81cdd58da081b585c9ad95d60921b6044820152606490fd5b60405190610120820182811067ffffffffffffffff821117610ec657604052565b634e487b7160e01b5f52604160045260245ffd5b5f52600160205260405f20610eed610ea5565b81546001600160a01b0380821680845260a083811c61ffff16602086015260b09390931c60ff161580156040860152600186015483166060860181905260028701548416608087015260038701548416948601949094526004860154831660c0860152600586015490921660e085015260069094015461010090930192909252909115908115610f85575b50610f805790565b505f90565b9050155f610f78565b6024356001600160a01b03811681036101275790565b6044356001600160a01b03811681036101275790565b6064356001600160a01b03811681036101275790565b6084356001600160a01b03811681036101275790565b60e4356001600160a01b03811681036101275790565b610104356001600160a01b03811681036101275790565b1561101a57565b60405162461bcd60e51b815260206004820152600c60248201526b08ccaca40e8dede40d0d2ced60a31b6044820152606490fd5b1561105557565b60405162461bcd60e51b8152602060048201526011602482015270466565526f75746572206164647228302960781b6044820152606490fd5b1561109557565b60405162461bcd60e51b815260206004820152600a6024820152694946206164647228302960b01b6044820152606490fd5b5f8181526020818152604080832033845290915290205460ff16156110e95750565b63e2517d3f60e01b5f523360045260245260445ffd5b5f818152602081815260408083206001600160a01b038616845290915290205460ff16611181575f818152602081815260408083206001600160a01b0395909516808452949091528120805460ff19166001179055339291907f2f8788117e7eff1d82e926ec794901d17c78024a50270940304540a733656f0d9080a4600190565b50505f90565b5f818152602081815260408083206001600160a01b038616845290915290205460ff1615611181575f818152602081815260408083206001600160a01b0395909516808452949091528120805460ff19169055339291907ff6391f5c32d9c69d2a47ea670b442974b53935d1edc7fd64eb21e047a839171b9080a4600190565b60c43561ffff81168103610127579056fea26469706673582212208cc4d347083f77e50c705b506a8781da8bf1d73df28ecdc40a266e22284ad38564736f6c634300081e0033ad3228b676f7d3cd4284a5443f17f1962b36e491b30a40b2405849e597ba5fb5","linkReferences":{}},"methodIdentifiers":{"DEFAULT_ADMIN_ROLE()":"a217fddf","MARKET_ADMIN_ROLE()":"d6f0d39f","MAX_FEE_BPS()":"d55be8c6","PARAM_ADMIN_ROLE()":"f5e2b30e","PAUSE_GUARDIAN_ROLE()":"4509e6ae","addMarket((bytes32,address,address,address,address,uint256,uint16,address,address))":"b7eaeaa0","exists(bytes32)":"38a699a4","getMarket(bytes32)":"c3c95c7b","getRoleAdmin(bytes32)":"248a9ca3","grantRole(bytes32,address)":"2f2ff15d","hasRole(bytes32,address)":"91d14854","isActive(bytes32)":"5c36901c","isPaused(bytes32)":"241b71bb","markets(bytes32)":"7564912b","pauseMarket(bytes32,bool)":"13fa5292","renounceRole(bytes32,address)":"36568abe","revokeRole(bytes32,address)":"d547741f","setMarketParams(bytes32,uint16,address,address)":"d32c78c0","supportsInterface(bytes4)":"01ffc9a7"},"id":47}