{"abi":[{"type":"constructor","inputs":[],"stateMutability":"nonpayable"},{"type":"function","name":"baseUnits","inputs":[{"name":"","type":"string","internalType":"string"}],"outputs":[{"name":"","type":"uint256","internalType":"uint256"}],"stateMutability":"view"},{"type":"function","name":"getPrice","inputs":[{"name":"_tokenSymbol","type":"string","internalType":"string"}],"outputs":[{"name":"","type":"uint256","internalType":"uint256"}],"stateMutability":"view"},{"type":"function","name":"getUnderlyingPrice","inputs":[{"name":"_tokenSymbol","type":"string","internalType":"string"}],"outputs":[{"name":"","type":"uint256","internalType":"uint256"}],"stateMutability":"view"},{"type":"function","name":"owner","inputs":[],"outputs":[{"name":"","type":"address","internalType":"address"}],"stateMutability":"view"},{"type":"function","name":"priceFeeds","inputs":[{"name":"","type":"string","internalType":"string"}],"outputs":[{"name":"","type":"address","internalType":"contract AggregatorV3Interface"}],"stateMutability":"view"},{"type":"function","name":"priceStalePeriod","inputs":[],"outputs":[{"name":"","type":"uint256","internalType":"uint256"}],"stateMutability":"view"},{"type":"function","name":"priceStalePeriods","inputs":[{"name":"","type":"string","internalType":"string"}],"outputs":[{"name":"","type":"uint256","internalType":"uint256"}],"stateMutability":"view"},{"type":"function","name":"sequencerUptimeFeed","inputs":[],"outputs":[{"name":"","type":"address","internalType":"contract AggregatorV3Interface"}],"stateMutability":"view"},{"type":"function","name":"setBaseUnit","inputs":[{"name":"_tokenSymbol","type":"string","internalType":"string"},{"name":"_baseUnit","type":"uint256","internalType":"uint256"}],"outputs":[],"stateMutability":"nonpayable"},{"type":"function","name":"setPriceFeed","inputs":[{"name":"_tokenSymbol","type":"string","internalType":"string"},{"name":"_priceFeedAddress","type":"address","internalType":"address"}],"outputs":[],"stateMutability":"nonpayable"},{"type":"function","name":"setPriceStalePeriod","inputs":[{"name":"_stalePeriod","type":"uint256","internalType":"uint256"}],"outputs":[],"stateMutability":"nonpayable"},{"type":"function","name":"setPriceStalePeriodForToken","inputs":[{"name":"_tokenSymbol","type":"string","internalType":"string"},{"name":"_stalePeriod","type":"uint256","internalType":"uint256"}],"outputs":[],"stateMutability":"nonpayable"},{"type":"function","name":"setSequencerUptimeFeed","inputs":[{"name":"_uptimeFeedAddress","type":"address","internalType":"address"}],"outputs":[],"stateMutability":"nonpayable"},{"type":"event","name":"BaseUnitSet","inputs":[{"name":"tokenSymbol","type":"string","indexed":true,"internalType":"string"},{"name":"baseUnit","type":"uint256","indexed":false,"internalType":"uint256"}],"anonymous":false},{"type":"event","name":"PriceFeedSet","inputs":[{"name":"tokenSymbol","type":"string","indexed":true,"internalType":"string"},{"name":"priceFeedAddress","type":"address","indexed":true,"internalType":"address"}],"anonymous":false},{"type":"event","name":"PriceStalePeriodSet","inputs":[{"name":"newStalePeriod","type":"uint256","indexed":false,"internalType":"uint256"}],"anonymous":false},{"type":"event","name":"PriceStalePeriodSetForToken","inputs":[{"name":"tokenSymbol","type":"string","indexed":true,"internalType":"string"},{"name":"newStalePeriod","type":"uint256","indexed":false,"internalType":"uint256"}],"anonymous":false},{"type":"event","name":"SequencerUptimeFeedSet","inputs":[{"name":"uptimeFeedAddress","type":"address","indexed":true,"internalType":"address"}],"anonymous":false},{"type":"error","name":"ChainlinkOracle_NoPriceFeed","inputs":[]},{"type":"error","name":"ChainlinkOracle_ZeroPrice","inputs":[]},{"type":"error","name":"Oracle_InvalidAddress","inputs":[]},{"type":"error","name":"PriceIsStale","inputs":[]},{"type":"error","name":"SequencerDown","inputs":[]}],"bytecode":{"object":"0x60808060405234602c575f80546001600160a01b03191633179055610e10600555610b5d90816100318239f35b5f80fdfe6080806040526004361015610012575f80fd5b5f3560e01c90816321cf3514146106ce5750806329f3533c146106765780635100368314610620578063524f3889146105655780636d7f2895146103d05780637e2631051461037a5780638da5cb5b14610353578063a4392ee1146102eb578063a7264705146102c3578063b8f4496314610251578063cb8ae86c146101ef578063d5554adc1461017d5763f3b3347e146100ab575f80fd5b346101795760403660031901126101795760043567ffffffffffffffff8111610179576100dc90369060040161071e565b6024356001600160a01b03811691908290036101795761010660018060a01b035f541633146107a6565b811561016a5761014490604051602081835180838601835e81016001815203019020836bffffffffffffffffffffffff60a01b825416179055610829565b7fdf04234d4adad453c202a56aae343d791761210eb89d2d72fd2ff7102d8d31865f80a3005b6395d833f960e01b5f5260045ffd5b5f80fd5b34610179576101e57f8f4895612b6a6c3ecba5615213184c5e44eefe7a7e7185fa6a945971f4d5644560206101b136610774565b93906101c760018060a01b035f541633146107a6565b846040518481845180838701835e8101600381520301902055610829565b92604051908152a2005b346101795760203660031901126101795760043567ffffffffffffffff811161017957610222602091369060040161071e565b8160405191805191829101835e600190820190815281900382019020546040516001600160a01b039091168152f35b34610179576020366003190112610179576004356001600160a01b038116908190036101795761028b60018060a01b035f541633146107a6565b600480546001600160a01b031916821790557f671ffd86986827dac4ed52c51f4d89dd730206be80833bf13391267f8bf3a7665f80a2005b34610179575f366003190112610179576004546040516001600160a01b039091168152602090f35b34610179576101e57f90dccf070016593cd7a02ecce2ee275a9ab06e57820cb23a63275a285a967fd1602061031f36610774565b939061033560018060a01b035f541633146107a6565b846040518481845180838701835e8101600281520301902055610829565b34610179575f366003190112610179575f546040516001600160a01b039091168152602090f35b346101795760203660031901126101795760043567ffffffffffffffff8111610179576020806103af8193369060040161071e565b604051928184925191829101835e8101600381520301902054604051908152f35b346101795760203660031901126101795760043567ffffffffffffffff81116101795761040190369060040161071e565b60405181519060208301918083835e60019082019081528190036020019020546001600160a01b031680156105565760206004916040519283809263313ce56760e01b82525afa90811561054b57602091610472915f9161051e575b5060ff6104698661089e565b50911690610a81565b92604051928391518091835e81016002815203019020549081156104d957670de0b6b3a7640000810290808204670de0b6b3a764000014901517156104c5576020916104bd9161080b565b604051908152f35b634e487b7160e01b5f52601160045260245ffd5b60405162461bcd60e51b815260206004820152601960248201527f4f7261636c653a206261736520756e6974206e6f7420736574000000000000006044820152606490fd5b61053e9150833d8511610544575b61053681836106e8565b8101906107f2565b8561045d565b503d61052c565b6040513d5f823e3d90fd5b6360d219e560e01b5f5260045ffd5b346101795760203660031901126101795760043567ffffffffffffffff81116101795761059690369060040161071e565b60405181518060208401835e60019082019081528190036020019020546001600160a01b031680156105565760206004916040519283809263313ce56760e01b82525afa801561054b576020926104bd925f926105fa575b5061046960ff9161089e565b60ff91925061061861046991863d88116105445761053681836106e8565b9291506105ee565b346101795760203660031901126101795760043567ffffffffffffffff8111610179576020806106558193369060040161071e565b604051928184925191829101835e8101600281520301902054604051908152f35b34610179576020366003190112610179577f08395228350d3a81944fb7f900cb1718805703427ac1a93cd3d9a22f79acadbf60206004356106c160018060a01b035f541633146107a6565b80600555604051908152a1005b34610179575f366003190112610179576020906005548152f35b90601f8019910116810190811067ffffffffffffffff82111761070a57604052565b634e487b7160e01b5f52604160045260245ffd5b81601f820112156101795780359067ffffffffffffffff821161070a5760405192610753601f8401601f1916602001856106e8565b8284526020838301011161017957815f926020809301838601378301015290565b6040600319820112610179576004359067ffffffffffffffff82116101795761079f9160040161071e565b9060243590565b156107ad57565b60405162461bcd60e51b815260206004820152601f60248201527f4f7261636c653a2043616c6c6572206973206e6f7420746865206f776e6572006044820152606490fd5b90816020910312610179575160ff811681036101795790565b8115610815570490565b634e487b7160e01b5f52601260045260245ffd5b602090604051918183925191829101835e81015f815203902090565b519069ffffffffffffffffffff8216820361017957565b908160a09103126101795761087081610845565b9160208201519160408101519161088e608060608401519301610845565b90565b919082039182116104c557565b90604051825190602081818601938085835e8101600381520301902054908115610a69575b6004546001600160a01b0316806109db575b5060049360a09160405191518091835e81019060018252602081600180861b039303019020541660405194858092633fabe5a360e21b82525afa905f915f925f825f975f9461099a575b50610933576360d219e560e01b5f5260045ffd5b5f85131561098b578015908115610981575b506109725769ffffffffffffffffffff809116911610610972576109698442610891565b11610972579190565b6342bc305b60e11b5f5260045ffd5b905042105f610945565b635493b5ad60e11b5f5260045ffd5b9350945050506109c391945060a03d60a0116109d4575b6109bb81836106e8565b81019061085c565b96939492919491949096925f61091f565b503d6109b1565b60a060049160405192838092633fabe5a360e21b82525afa905f825f925f94610a41575b50610a125762032b3d60e81b5f5260045ffd5b15610a33571561097257610a27839142610891565b116109725760046108d5565b62032b3d60e81b5f5260045ffd5b91509250610a5e915060a03d60a0116109d4576109bb81836106e8565b50925091925f6109ff565b60055491506108c3565b604d81116104c557600a0a90565b9060128114610b235760128110610afb5760111981019081116104c557610aa790610a73565b8015610ab65761088e9161080b565b60405162461bcd60e51b815260206004820152601860248201527f4f7261636c653a20696e76616c696420646563696d616c7300000000000000006044820152606490fd5b601203601281116104c557610b0f90610a73565b908181029181830414901517156104c55790565b509056fea2646970667358221220a0779774c6ba90e1937ed106d0415633559614f56e260f3868636b956b24fd1864736f6c634300081e0033","linkReferences":{}},"methodIdentifiers":{"baseUnits(string)":"51003683","getPrice(string)":"524f3889","getUnderlyingPrice(string)":"6d7f2895","owner()":"8da5cb5b","priceFeeds(string)":"cb8ae86c","priceStalePeriod()":"21cf3514","priceStalePeriods(string)":"7e263105","sequencerUptimeFeed()":"a7264705","setBaseUnit(string,uint256)":"a4392ee1","setPriceFeed(string,address)":"f3b3347e","setPriceStalePeriod(uint256)":"29f3533c","setPriceStalePeriodForToken(string,uint256)":"d5554adc","setSequencerUptimeFeed(address)":"b8f44963"},"id":51}