{"abi":[{"type":"constructor","inputs":[],"stateMutability":"nonpayable"},{"type":"function","name":"UPGRADE_INTERFACE_VERSION","inputs":[],"outputs":[{"name":"","type":"string","internalType":"string"}],"stateMutability":"view"},{"type":"function","name":"clearinghouse","inputs":[],"outputs":[{"name":"","type":"address","internalType":"address"}],"stateMutability":"view"},{"type":"function","name":"cumulativeFundingPerUnitX18","inputs":[],"outputs":[{"name":"","type":"int256","internalType":"int256"}],"stateMutability":"view"},{"type":"function","name":"feeBps","inputs":[],"outputs":[{"name":"","type":"uint16","internalType":"uint16"}],"stateMutability":"view"},{"type":"function","name":"feeGrowthGlobalX128","inputs":[],"outputs":[{"name":"","type":"uint256","internalType":"uint256"}],"stateMutability":"view"},{"type":"function","name":"frMaxBpsPerHour","inputs":[],"outputs":[{"name":"","type":"uint256","internalType":"uint256"}],"stateMutability":"view"},{"type":"function","name":"getLiquidity","inputs":[],"outputs":[{"name":"","type":"uint128","internalType":"uint128"}],"stateMutability":"view"},{"type":"function","name":"getMarkPrice","inputs":[],"outputs":[{"name":"","type":"uint256","internalType":"uint256"}],"stateMutability":"view"},{"type":"function","name":"getReserves","inputs":[],"outputs":[{"name":"base","type":"uint256","internalType":"uint256"},{"name":"quote","type":"uint256","internalType":"uint256"}],"stateMutability":"view"},{"type":"function","name":"getSqrtPriceX96","inputs":[],"outputs":[{"name":"","type":"uint160","internalType":"uint160"}],"stateMutability":"view"},{"type":"function","name":"getTick","inputs":[],"outputs":[{"name":"","type":"int24","internalType":"int24"}],"stateMutability":"pure"},{"type":"function","name":"getTwap","inputs":[{"name":"window","type":"uint32","internalType":"uint32"}],"outputs":[{"name":"","type":"uint256","internalType":"uint256"}],"stateMutability":"view"},{"type":"function","name":"initialize","inputs":[{"name":"_clearinghouse","type":"address","internalType":"address"},{"name":"_oracle","type":"address","internalType":"address"},{"name":"initialPriceX18","type":"uint256","internalType":"uint256"},{"name":"initialBaseReserve","type":"uint256","internalType":"uint256"},{"name":"liquidity_","type":"uint128","internalType":"uint128"},{"name":"feeBps_","type":"uint16","internalType":"uint16"},{"name":"frMaxBpsPerHour_","type":"uint256","internalType":"uint256"},{"name":"kFundingX18_","type":"uint256","internalType":"uint256"},{"name":"observationWindow_","type":"uint32","internalType":"uint32"}],"outputs":[],"stateMutability":"nonpayable"},{"type":"function","name":"kFundingX18","inputs":[],"outputs":[{"name":"","type":"uint256","internalType":"uint256"}],"stateMutability":"view"},{"type":"function","name":"lastFundingTimestamp","inputs":[],"outputs":[{"name":"","type":"uint64","internalType":"uint64"}],"stateMutability":"view"},{"type":"function","name":"observationWindow","inputs":[],"outputs":[{"name":"","type":"uint32","internalType":"uint32"}],"stateMutability":"view"},{"type":"function","name":"oracle","inputs":[],"outputs":[{"name":"","type":"address","internalType":"address"}],"stateMutability":"view"},{"type":"function","name":"owner","inputs":[],"outputs":[{"name":"","type":"address","internalType":"address"}],"stateMutability":"view"},{"type":"function","name":"pauseSwaps","inputs":[{"name":"paused","type":"bool","internalType":"bool"}],"outputs":[],"stateMutability":"nonpayable"},{"type":"function","name":"pokeFunding","inputs":[],"outputs":[],"stateMutability":"nonpayable"},{"type":"function","name":"proxiableUUID","inputs":[],"outputs":[{"name":"","type":"bytes32","internalType":"bytes32"}],"stateMutability":"view"},{"type":"function","name":"setClearinghouse","inputs":[{"name":"newCH","type":"address","internalType":"address"}],"outputs":[],"stateMutability":"nonpayable"},{"type":"function","name":"setLiquidity","inputs":[{"name":"newLiquidity","type":"uint128","internalType":"uint128"}],"outputs":[],"stateMutability":"nonpayable"},{"type":"function","name":"setOracle","inputs":[{"name":"newOracle","type":"address","internalType":"address"}],"outputs":[],"stateMutability":"nonpayable"},{"type":"function","name":"setParams","inputs":[{"name":"feeBps_","type":"uint16","internalType":"uint16"},{"name":"frMaxBpsPerHour_","type":"uint256","internalType":"uint256"},{"name":"kFundingX18_","type":"uint256","internalType":"uint256"},{"name":"observationWindow_","type":"uint32","internalType":"uint32"}],"outputs":[],"stateMutability":"nonpayable"},{"type":"function","name":"swapBaseForQuote","inputs":[{"name":"baseAmount","type":"uint128","internalType":"uint128"},{"name":"priceLimitX18","type":"uint256","internalType":"uint256"}],"outputs":[{"name":"baseDelta","type":"int256","internalType":"int256"},{"name":"quoteDelta","type":"int256","internalType":"int256"},{"name":"avgPriceX18","type":"uint256","internalType":"uint256"}],"stateMutability":"nonpayable"},{"type":"function","name":"swapQuoteForBase","inputs":[{"name":"quoteAmount","type":"uint128","internalType":"uint128"},{"name":"priceLimitX18","type":"uint256","internalType":"uint256"}],"outputs":[{"name":"baseDelta","type":"int256","internalType":"int256"},{"name":"quoteDelta","type":"int256","internalType":"int256"},{"name":"avgPriceX18","type":"uint256","internalType":"uint256"}],"stateMutability":"nonpayable"},{"type":"function","name":"swapSellBaseForQuote","inputs":[{"name":"baseAmount","type":"uint128","internalType":"uint128"},{"name":"priceLimitX18","type":"uint256","internalType":"uint256"}],"outputs":[{"name":"baseDelta","type":"int256","internalType":"int256"},{"name":"quoteDelta","type":"int256","internalType":"int256"},{"name":"avgPriceX18","type":"uint256","internalType":"uint256"}],"stateMutability":"nonpayable"},{"type":"function","name":"swapsPaused","inputs":[],"outputs":[{"name":"","type":"bool","internalType":"bool"}],"stateMutability":"view"},{"type":"function","name":"transferOwnership","inputs":[{"name":"newOwner","type":"address","internalType":"address"}],"outputs":[],"stateMutability":"nonpayable"},{"type":"function","name":"upgradeToAndCall","inputs":[{"name":"newImplementation","type":"address","internalType":"address"},{"name":"data","type":"bytes","internalType":"bytes"}],"outputs":[],"stateMutability":"payable"},{"type":"event","name":"ClearinghouseChanged","inputs":[{"name":"newCH","type":"address","indexed":true,"internalType":"address"}],"anonymous":false},{"type":"event","name":"FundingPoked","inputs":[{"name":"cumulativeFundingPerUnitX18","type":"int256","indexed":false,"internalType":"int256"},{"name":"timestamp","type":"uint64","indexed":false,"internalType":"uint64"},{"name":"fundingRateX18","type":"int256","indexed":false,"internalType":"int256"}],"anonymous":false},{"type":"event","name":"Initialized","inputs":[{"name":"version","type":"uint64","indexed":false,"internalType":"uint64"}],"anonymous":false},{"type":"event","name":"Initialized","inputs":[{"name":"owner","type":"address","indexed":true,"internalType":"address"},{"name":"clearinghouse","type":"address","indexed":true,"internalType":"address"},{"name":"priceX18","type":"uint256","indexed":false,"internalType":"uint256"},{"name":"baseReserve","type":"uint256","indexed":false,"internalType":"uint256"},{"name":"quoteReserve","type":"uint256","indexed":false,"internalType":"uint256"}],"anonymous":false},{"type":"event","name":"LiquiditySet","inputs":[{"name":"newLiquidity","type":"uint128","indexed":false,"internalType":"uint128"}],"anonymous":false},{"type":"event","name":"OracleChanged","inputs":[{"name":"newOracle","type":"address","indexed":true,"internalType":"address"}],"anonymous":false},{"type":"event","name":"OwnerChanged","inputs":[{"name":"newOwner","type":"address","indexed":true,"internalType":"address"}],"anonymous":false},{"type":"event","name":"ParamsSet","inputs":[{"name":"feeBps","type":"uint16","indexed":false,"internalType":"uint16"},{"name":"frMaxBpsPerHour","type":"uint256","indexed":false,"internalType":"uint256"},{"name":"kFundingX18","type":"uint256","indexed":false,"internalType":"uint256"},{"name":"observationWindow","type":"uint32","indexed":false,"internalType":"uint32"}],"anonymous":false},{"type":"event","name":"Swap","inputs":[{"name":"sender","type":"address","indexed":true,"internalType":"address"},{"name":"baseDelta","type":"int256","indexed":false,"internalType":"int256"},{"name":"quoteDelta","type":"int256","indexed":false,"internalType":"int256"},{"name":"avgPriceX18","type":"uint256","indexed":false,"internalType":"uint256"}],"anonymous":false},{"type":"event","name":"SwapsPaused","inputs":[{"name":"paused","type":"bool","indexed":false,"internalType":"bool"}],"anonymous":false},{"type":"event","name":"Upgraded","inputs":[{"name":"implementation","type":"address","indexed":true,"internalType":"address"}],"anonymous":false},{"type":"error","name":"AddressEmptyCode","inputs":[{"name":"target","type":"address","internalType":"address"}]},{"type":"error","name":"ERC1967InvalidImplementation","inputs":[{"name":"implementation","type":"address","internalType":"address"}]},{"type":"error","name":"ERC1967NonPayable","inputs":[]},{"type":"error","name":"FailedCall","inputs":[]},{"type":"error","name":"InvalidInitialization","inputs":[]},{"type":"error","name":"NotInitializing","inputs":[]},{"type":"error","name":"UUPSUnauthorizedCallContext","inputs":[]},{"type":"error","name":"UUPSUnsupportedProxiableUUID","inputs":[{"name":"slot","type":"bytes32","internalType":"bytes32"}]}],"bytecode":{"object":"0x60a080604052346100c257306080525f5160206123bf5f395f51905f525460ff8160401c166100b3576002600160401b03196001600160401b03821601610060575b6040516122f890816100c78239608051818181610ca10152610d700152f35b6001600160401b0319166001600160401b039081175f5160206123bf5f395f51905f525581527fc7f505b2f371ae2175ee4913f4499e1f2633a7b5936321eed1cdaeb6115181d290602090a15f80610041565b63f92ee8a960e01b5f5260045ffd5b5f80fdfe6080806040526004361015610012575f80fd5b5f3560e01c9081630815fed014611522575080630902f1ac146114fe5780630910a510146114d657806324a9d853146114b55780632bf001721461149d5780632e7b68281461148057806332dc5d93146113275780633396b9711461106d57806335f834c11461104157806337d4b65914610fc85780633d718da014610f335780634f1ef28614610cf557806352d1902d14610c8f57806353b857d414610c7257806356c6ede614610b6b5780635d4f5f9714610b435780636040963214610b2157806371188b5a14610b045780637adbf97314610a605780637dc0d1d014610a385780638da5cb5b14610a1157806393ca3415146109eb578063ad23b416146109ce578063ad3cb1cc14610970578063b1f8f13b146108f0578063b413ad69146108cd578063c354ca1214610855578063df8ad8141461083b578063e3079f0014610638578063f2fde38b146105935763faf3b31e14610171575f80fd5b3461058f5761012036600319011261058f5761018b61155a565b6024356001600160a01b0381169081900361058f5760443590606435608435916001600160801b0383169283810361058f5760a4359261ffff841680940361058f57610104359463ffffffff861680960361058f575f5160206122a35f395f51905f5254976001600160401b0360ff8a60401c1615991680159081610587575b600114908161057d575b159081610574575b50610565578860016001600160401b03195f5160206122a35f395f51905f525416175f5160206122a35f395f51905f5255610535575b6001600160a01b031691610268831515611bc7565b84156105055787156104d65780156104a557640100000000600160a01b03946102d8936102978a941515611bf9565b336001600160601b0360a01b5f5416175f556001600160601b0360a01b60015416176001556001600160601b0360a01b600254161760025580600355611f1e565b6004556008549261ffff19600554161760055560c43560065560e43560075560201b16906001600160601b0360a01b1617176008556001600160401b0342166001600160401b0319600b541617600b5560405161033481611570565b63ffffffff4216815263ffffffff60208201915f8352511663ffffffff19600c541617600c5551600d556201000062ffffff19608c541617608c5560018060a01b035f54167f4a9c62e9f5b1bd7dfbc4dbff9e13a7178fe7a004d15c4e66c942416714f28edb606060018060a01b0360015416936003546004549060405192835260208301526040820152a36005546006546007546008546040805161ffff909516855260208086019490945284019190915263ffffffff811660608401527fda910bf02851bb8d050a9d9cde446a782984df3623b69c1316ec0785457fb03a927fa9f34f0da0b45009199e43ae578e6e4f5f1669be878f998b42c0b42be12d175190608090a16001600160801b0360405191831c168152a161045357005b60ff60401b195f5160206122a35f395f51905f5254165f5160206122a35f395f51905f52557fc7f505b2f371ae2175ee4913f4499e1f2633a7b5936321eed1cdaeb6115181d2602060405160018152a1005b60405162461bcd60e51b81526020600482015260096024820152680626173655265733d360bc1b6044820152606490fd5b60405162461bcd60e51b8152602060048201526007602482015266070726963653d360cc1b6044820152606490fd5b60405162461bcd60e51b815260206004820152600860248201526704f7261636c653d360c41b6044820152606490fd5b600160401b60ff60401b195f5160206122a35f395f51905f525416175f5160206122a35f395f51905f5255610253565b63f92ee8a960e01b5f5260045ffd5b9050155f61021d565b303b159150610215565b8a915061020b565b5f80fd5b3461058f57602036600319011261058f576105ac61155a565b5f54906105c3336001600160a01b03841614611b8f565b6001600160a01b0316908115610609576001600160a01b03191681175f9081557fa2ea9883a321a3e97b8266c2b078bfeec6d50c711ed71f874a90d500ae2eaf369080a2005b60405162461bcd60e51b815260206004820152600760248201526606f776e65723d360cc1b6044820152606490fd5b3461058f57604036600319011261058f57610651611544565b6001600160801b036024359161067260018060a01b03600154163314611811565b61068460ff600b5460401c1615611846565b1690610691821515611881565b600354600454906106a0611c6b565b6106aa84836115fd565b916106c961ffff600554169361ffff6106c2866118b8565b16906115fd565b61271083029383850461271014841517156108275761075361078294889461074b61071a61075c966107146107e49b61070e61ffff6107078b6118b8565b168c6115fd565b906118cc565b90611610565b9a8b936107288515156118d9565b6107466107358387611d56565b9c801590811561081c575b5061190e565b6118cc565b600355611945565b60045582611e37565b846001600160801b0360085460201c1680151580610813575b6107e8575b50505061161a565b9161078b611fd1565b604080518481526020810186905290810182905233907fab7fa439d3be82c9e9dc9527df7b0ebc3b65c9911e3112698997d509abf0288290606090a2604051938493846040919493926060820195825260208201520152565b0390f35b6107f86108009261080894611f1e565b60801b611610565b6009546118cc565b60095585848161077a565b50821515610775565b90508d10158f610740565b634e487b7160e01b5f52601160045260245ffd5b3461058f575f36600319011261058f5760206040515f8152f35b3461058f57602036600319011261058f5760043580151580910361058f5760207fd2fe05ef72602caa12aeec22127996a216d56be7a793efc271766988f5d0a056916108ab60018060a01b035f54163314611b8f565b600b5460ff60401b8260401b169060ff60401b191617600b55604051908152a1005b3461058f575f36600319011261058f57602063ffffffff60085416604051908152f35b3461058f575f36600319011261058f5761091861091361090e611c2b565b611ea0565b6120de565b6001600160a01b03811161093b576040516001600160a01b039091168152602090f35b60405162461bcd60e51b815260206004820152600d60248201526c73717274206f766572666c6f7760981b6044820152606490fd5b3461058f575f36600319011261058f57604080519061098f818361159f565b600582526020820191640352e302e360dc1b83528151928391602083525180918160208501528484015e5f828201840152601f01601f19168101030190f35b3461058f575f36600319011261058f576020600954604051908152f35b3461058f575f36600319011261058f5760206001600160401b03600b5416604051908152f35b3461058f575f36600319011261058f575f546040516001600160a01b039091168152602090f35b3461058f575f36600319011261058f576002546040516001600160a01b039091168152602090f35b3461058f57602036600319011261058f57610a7961155a565b610a8d60018060a01b035f54163314611b8f565b6001600160a01b03168015610ad457600280546001600160a01b031916821790557f0e05ae75e8b926552cf6fcd744d19f422561e3ced1e426868730852702dbe4185f80a2005b60405162461bcd60e51b815260206004820152600860248201526706f7261636c653d360c41b6044820152606490fd5b3461058f575f36600319011261058f576020600a54604051908152f35b3461058f575f36600319011261058f576020610b3b611c2b565b604051908152f35b3461058f575f36600319011261058f576001546040516001600160a01b039091168152602090f35b3461058f57608036600319011261058f5760043561ffff811680910361058f57602435604435916064359263ffffffff841680940361058f57610bb860018060a01b035f54163314611b8f565b60648211610c3e577fa9f34f0da0b45009199e43ae578e6e4f5f1669be878f998b42c0b42be12d175193610c39918361ffff19600554161760055584600655806007558163ffffffff19600854161760085560405194859485929363ffffffff91959460609361ffff60808701981686526020860152604085015216910152565b0390a1005b60405162461bcd60e51b815260206004820152600c60248201526b08ccaca40e8dede40d0d2ced60a31b6044820152606490fd5b3461058f575f36600319011261058f576020600654604051908152f35b3461058f575f36600319011261058f577f00000000000000000000000000000000000000000000000000000000000000006001600160a01b03163003610ce65760206040515f5160206122835f395f51905f528152f35b63703e46dd60e11b5f5260045ffd5b604036600319011261058f57610d0961155a565b602435906001600160401b03821161058f573660238301121561058f57816004013590610d35826115c0565b91610d43604051938461159f565b8083526020830193366024838301011161058f57815f926024602093018737840101526001600160a01b037f000000000000000000000000000000000000000000000000000000000000000016308114908115610f11575b50610ce657610db460018060a01b035f54163314611b8f565b6040516352d1902d60e01b81526001600160a01b0382169390602081600481885afa5f9181610edd575b50610df65784634c9c8ce360e01b5f5260045260245ffd5b805f5160206122835f395f51905f52869203610ecb5750823b15610eb9575f5160206122835f395f51905f5280546001600160a01b031916821790557fbc7cd75a20ee27fd9adebab32041f755214dbc6bffa90cc0225b39da2e5c2d3b5f80a2825115610ea0575f8091610e96945190845af43d15610e98573d91610e7a836115c0565b92610e88604051948561159f565b83523d5f602085013e612224565b005b606091612224565b50505034610eaa57005b63b398979f60e01b5f5260045ffd5b634c9c8ce360e01b5f5260045260245ffd5b632a87526960e21b5f5260045260245ffd5b9091506020813d602011610f09575b81610ef96020938361159f565b8101031261058f57519086610dde565b3d9150610eec565b5f5160206122835f395f51905f52546001600160a01b03161415905084610d9b565b3461058f57602036600319011261058f577fda910bf02851bb8d050a9d9cde446a782984df3623b69c1316ec0785457fb03a6020610f6f611544565b610f8360018060a01b035f54163314611b8f565b6001600160801b03811690610f99821515611bf9565b640100000000600160a01b0360085491841b1690640100000000600160a01b03191617600855604051908152a1005b3461058f57602036600319011261058f57610fe161155a565b610ff560018060a01b035f54163314611b8f565b6001600160a01b0316611009811515611bc7565b600180546001600160a01b031916821790557f96462797df311ae73a3d5f26a7f2b65b2bad4e4fbd737b03fbe48597c2648c565f80a2005b3461058f57602036600319011261058f5760043563ffffffff8116810361058f57610b3b602091611990565b3461058f57604036600319011261058f57611086611544565b6024359061109f60018060a01b03600154163314611811565b6110b160ff600b5460401c1615611846565b6110c56001600160801b0382161515611881565b60035460045492816001600160801b03841610156112f1576110e5611c6b565b61271084029184830461271014851517156108275761110d6001600160801b03851682611945565b61112181856001600160801b038816611f93565b9381156112c6576001600160801b038616096112da575b61ffff600554169061ffff61114c836118b8565b169161115a83600187611f93565b9183156112c6576001600160801b0397876111f39560016107e49909611285575b6111d5936111c06111cf946111b48861ffff968f6111a1610746916111c8991684611d56565b8e819f1591821561127a575b505061190e565b6004558c8c1690611945565b6003556118b8565b1683611e37565b82611945565b8660085460201c169081151580611271575b611257575b505061161a565b6111fb611fd1565b6040805186861681526020810183905290810183905233907fab7fa439d3be82c9e9dc9527df7b0ebc3b65c9911e3112698997d509abf0288290606090a260405194859416846040919493926060820195825260208201520152565b611267916108009160801b611610565b60095586806111ec565b508015156111e7565b111590505f8f6111ad565b6111d5936111c06111cf946111b46111c89461ffff968f9a6111a16001610746926112b25f198210611d11565b019c5050509650945050945050935061117b565b634e487b7160e01b5f52601260045260245ffd5b916001906112ea5f198210611d11565b0191611138565b60405162461bcd60e51b815260206004820152600e60248201526d0d2dce6eaccccd2c6d2cadce840b60931b6044820152606490fd5b3461058f57604036600319011261058f57611340611544565b6001600160801b036024359161136160018060a01b03600154163314611811565b61137360ff600b5460401c1615611846565b1661137f811515611881565b60035460045461138d611c6b565b61ffff60055416916113ab61ffff6113a4856118b8565b16856115fd565b61271083029383850461271014841517156108275761141c6114499487946114146113e7866113e0611425986107e49c6118cc565b9084611f93565b998a936113f58515156118d9565b6107466114028684611d56565b8e819f1591821561147557505061190e565b600455611945565b60035582611e37565b6001600160801b0360085460201c16908115158061146c575b61145257505061161a565b9261078b611fd1565b611462916108009160801b611610565b60095585806111ec565b5080151561143e565b111590508f8f6111ad565b3461058f575f36600319011261058f576020600754604051908152f35b3461058f575f36600319011261058f57610e9661162a565b3461058f575f36600319011261058f57602061ffff60055416604051908152f35b3461058f575f36600319011261058f5760206001600160801b03600854821c16604051908152f35b3461058f575f36600319011261058f57604060035460045482519182526020820152f35b3461058f575f36600319011261058f5760209060ff600b5460401c1615158152f35b600435906001600160801b038216820361058f57565b600435906001600160a01b038216820361058f57565b604081019081106001600160401b0382111761158b57604052565b634e487b7160e01b5f52604160045260245ffd5b90601f801991011681019081106001600160401b0382111761158b57604052565b6001600160401b03811161158b57601f01601f191660200190565b81810292915f8212600160ff1b82141661082757818405149015171561082757565b8181029291811591840414171561082757565b81156112c6570490565b600160ff1b8114610827575f0390565b6001600160401b034216600b546001600160401b0381168083111561180c5760049061165d63ffffffff60085416611990565b600254604051634c6afee560e11b81529360209185919082906001600160a01b03165afa928315611801575f936117cd575b505f83820393128184128116918413901516176108275783036001600160401b0381116108275769124bc0ddd92e560000006116e66116e1936001600160401b036116f09416948591600754906115db565b6115db565b05916006546115fd565b670de0b6b3a7640000810290808204670de0b6b3a7640000149015171561082757630225510090045f8213806117c4575b6117bc575b5f8212806117ab575b61179b575b50600a5490808201915f828412911290801582169115161761082757837fddfd84b577dccbe1bdf135a0357c6ff7762b3a135746d56893b8ccb2eda23e6b9460609484600a556001600160401b03191617600b5560405192835260208301526040820152a1565b6117a5915061161a565b5f611734565b50806117b68361161a565b1161172f565b905080611726565b50808211611721565b9092506020813d6020116117f9575b816117e96020938361159f565b8101031261058f5751915f61168f565b3d91506117dc565b6040513d5f823e3d90fd5b505050565b1561181857565b60405162461bcd60e51b815260206004820152600660248201526509cdee84086960d31b6044820152606490fd5b1561184d57565b60405162461bcd60e51b815260206004820152600c60248201526b14ddd85c1cc81c185d5cd95960a21b6044820152606490fd5b1561188857565b60405162461bcd60e51b81526020600482015260086024820152670616d6f756e743d360c41b6044820152606490fd5b61ffff16612710039061ffff821161082757565b9190820180921161082757565b156118e057565b60405162461bcd60e51b81526020600482015260066024820152651b9bc81bdd5d60d21b6044820152606490fd5b1561191557565b60405162461bcd60e51b8152602060048201526008602482015267736c69707061676560c01b6044820152606490fd5b9190820391821161082757565b9063ffffffff8091169116039063ffffffff821161082757565b9060405161197981611570565b60206001829463ffffffff81541684520154910152565b90608c549060ff8260101c1615611b845763ffffffff831615611b74575b63ffffffff8316928315611b68576119c4612063565b93909163ffffffff851680961015611b61575b6119e461ffff9186611952565b9116935f956040516119f581611570565b5f81525f60208201529661ffff63ffffffff5f9516915b16966040881015611b52576040811015611b3e57611a2f8160011b600c0161196c565b63ffffffff815116998a15611b2e57508290991115611a8c5761ffff1680611a6b5750603f5b9661ffff811461082757600161ffff9101611a0c565b5f190161ffff811115611a5557634e487b7160e01b5f52601160045260245ffd5b5050915091935060019492945b1580611b1f575b611b135763ffffffff8351161015611b0557611ad763ffffffff9182611ace611ade96602087015190611945565b94511690611952565b1690611610565b670de0b6b3a7640000810290808204670de0b6b3a764000014901517156108275760801c90565b505050611b10611c2b565b90565b50505050611b10611c2b565b5063ffffffff83511615611aa0565b9799505050509190929450611a99565b634e487b7160e01b5f52603260045260245ffd5b50509190929450949294611a99565b50836119d7565b50915050611b10611c2b565b60085463ffffffff1692506119ae565b915050611b10611c2b565b15611b9657565b60405162461bcd60e51b81526020600482015260096024820152682737ba1037bbb732b960b91b6044820152606490fd5b15611bce57565b606460405162461bcd60e51b8152602060048201526004602482015263043483d360e41b6044820152fd5b15611c0057565b60405162461bcd60e51b815260206004820152600360248201526204c3d360ec1b6044820152606490fd5b6003548015611c4057611b1090600454611d56565b60405162461bcd60e51b81526020600482015260036024820152620583d360ec1b6044820152606490fd5b63ffffffff4216608c54604061ffff82161015611b3e5760011b6201fffe16611c96600c820161196c565b63ffffffff815116831461180c57600d611cd4611cde9263ffffffff6106c281670de0b6b3a7640000611cc7611c2b565b60801b0493511688611952565b92019182546118cc565b9055608c54604061ffff82161015611b3e576201fffe63ffffffff9160011b16600c01911663ffffffff19825416179055565b15611d1857565b60405162461bcd60e51b815260206004820152601660248201527543616c63756c6174696f6e733a206f766572666c6f7760501b6044820152606490fd5b5f19670de0b6b3a7640000820991670de0b6b3a7640000820291828085109403938085039414611dea57670de0b6b3a76400008291611d96868411611d11565b09600182190182168092046002816003021880820260020302808202600203028082026002030280820260020302808202600203028091026002030293600183805f03040190848311900302920304170290565b508091925015611dfd57611b1091611610565b60405162461bcd60e51b8152602060048201526012602482015271043616c63756c6174696f6e733a20646976360741b6044820152606490fd5b5f1982820982820291828083109203918083039214611e95577fbc01a36e2eb1c432ca57a786c226809d495182a9930be0ded288ce703afb7e919361271091611e81848411611d11565b0990828211900360fc1b910360041c170290565b505061271091500490565b5f19600160c01b82098160c01b90818082109103908082039114611f0e57670de0b6b3a76400007faccb18165bd6fe31ae1cf318dc5b51eee0e1ba569b88cd74c1773b91fac1066993611ef4838311611d11565b600160c01b900990828211900360ee1b910360121c170290565b50670de0b6b3a764000091500490565b5f1982820982820291828083109203918083039214611f82577faccb18165bd6fe31ae1cf318dc5b51eee0e1ba569b88cd74c1773b91fac1066993670de0b6b3a764000091611f6e848411611d11565b0990828211900360ee1b910360121c170290565b5050670de0b6b3a764000091500490565b90915f198383099280830292838086109503948086039514611fbd57908291611d96868411611d11565b50508091925015611dfd57611b1091611610565b611fd9611c6b565b608c5461ffff811690600182019061ffff8211610827576040603f8316931015611b3e576201fffe9060011b1680600c01916040841015611b3e57607e9060011b169182600c019181830361203b575b5050505061ffff19608c541617608c55565b600d9263ffffffff80859454161663ffffffff1982541617905501549101555f808080612029565b63ffffffff4216608c54604061ffff82161015611b3e576201fffe61208e9160011b16600c0161196c565b63ffffffff815116156120d9576120d69061070e670de0b6b3a76400006120b3611c2b565b60801b0491602063ffffffff6120cc8184511688611952565b16910151926115fd565b91565b505f91565b801561221f57600181600160801b81101561220d575b61219e61219161218461217761216a61215d6121b597600888600160401b6121ab9a1015612200575b6401000000008110156121f3575b620100008110156121e7575b6101008110156121db575b60108110156121ce575b10156121c6575b61070e818b611610565b60011c61070e818a611610565b60011c61070e8189611610565b60011c61070e8188611610565b60011c61070e8187611610565b60011c61070e8186611610565b60011c61070e8185611610565b60011c8092611610565b808210156121c1575090565b905090565b60011b612153565b60041c9160021b9161214c565b811c9160041b91612142565b60101c91811b91612137565b60201c9160101b9161212b565b60401c9160201b9161211d565b50600160401b9050608082901c6120f4565b505f90565b90612248575080511561223957602081519101fd5b63d6bda27560e01b5f5260045ffd5b81511580612279575b612259575090565b639996b31560e01b5f9081526001600160a01b0391909116600452602490fd5b50803b1561225156fe360894a13ba1a3210667c828492db98dca3e2076cc3735a920a3ca505d382bbcf0c57e16840df040f15088dc2f81fe391c3923bec73e23a9662efc9c229c6a00a26469706673582212207401aa33c51e3bf839f3bb479bbbc5cfebeb6c5553d9ce16af632cfdd71f48dc64736f6c634300081e0033f0c57e16840df040f15088dc2f81fe391c3923bec73e23a9662efc9c229c6a00","linkReferences":{}},"methodIdentifiers":{"UPGRADE_INTERFACE_VERSION()":"ad3cb1cc","clearinghouse()":"5d4f5f97","cumulativeFundingPerUnitX18()":"71188b5a","feeBps()":"24a9d853","feeGrowthGlobalX128()":"ad23b416","frMaxBpsPerHour()":"53b857d4","getLiquidity()":"0910a510","getMarkPrice()":"60409632","getReserves()":"0902f1ac","getSqrtPriceX96()":"b1f8f13b","getTick()":"df8ad814","getTwap(uint32)":"35f834c1","initialize(address,address,uint256,uint256,uint128,uint16,uint256,uint256,uint32)":"faf3b31e","kFundingX18()":"2e7b6828","lastFundingTimestamp()":"93ca3415","observationWindow()":"b413ad69","oracle()":"7dc0d1d0","owner()":"8da5cb5b","pauseSwaps(bool)":"c354ca12","pokeFunding()":"2bf00172","proxiableUUID()":"52d1902d","setClearinghouse(address)":"37d4b659","setLiquidity(uint128)":"3d718da0","setOracle(address)":"7adbf973","setParams(uint16,uint256,uint256,uint32)":"56c6ede6","swapBaseForQuote(uint128,uint256)":"3396b971","swapQuoteForBase(uint128,uint256)":"32dc5d93","swapSellBaseForQuote(uint128,uint256)":"e3079f00","swapsPaused()":"0815fed0","transferOwnership(address)":"f2fde38b","upgradeToAndCall(address,bytes)":"4f1ef286"},"id":54}